{
  "contracts/CoopartNFT.sol": {
    "CoopartNFT": {
      "abi": [
        {
          "inputs": [],
          "stateMutability": "nonpayable",
          "type": "constructor"
        },
        {
          "anonymous": false,
          "inputs": [
            {
              "indexed": true,
              "internalType": "address",
              "name": "owner",
              "type": "address"
            },
            {
              "indexed": true,
              "internalType": "address",
              "name": "approved",
              "type": "address"
            },
            {
              "indexed": true,
              "internalType": "uint256",
              "name": "tokenId",
              "type": "uint256"
            }
          ],
          "name": "Approval",
          "type": "event"
        },
        {
          "anonymous": false,
          "inputs": [
            {
              "indexed": true,
              "internalType": "address",
              "name": "owner",
              "type": "address"
            },
            {
              "indexed": true,
              "internalType": "address",
              "name": "operator",
              "type": "address"
            },
            {
              "indexed": false,
              "internalType": "bool",
              "name": "approved",
              "type": "bool"
            }
          ],
          "name": "ApprovalForAll",
          "type": "event"
        },
        {
          "anonymous": false,
          "inputs": [
            {
              "indexed": false,
              "internalType": "address",
              "name": "_buyer",
              "type": "address"
            }
          ],
          "name": "CanvasBought",
          "type": "event"
        },
        {
          "anonymous": false,
          "inputs": [
            {
              "indexed": false,
              "internalType": "address",
              "name": "_voter",
              "type": "address"
            }
          ],
          "name": "HasVoted",
          "type": "event"
        },
        {
          "anonymous": false,
          "inputs": [
            {
              "indexed": true,
              "internalType": "address",
              "name": "previousOwner",
              "type": "address"
            },
            {
              "indexed": true,
              "internalType": "address",
              "name": "newOwner",
              "type": "address"
            }
          ],
          "name": "OwnershipTransferred",
          "type": "event"
        },
        {
          "anonymous": false,
          "inputs": [
            {
              "indexed": true,
              "internalType": "address",
              "name": "from",
              "type": "address"
            },
            {
              "indexed": true,
              "internalType": "address",
              "name": "to",
              "type": "address"
            },
            {
              "indexed": true,
              "internalType": "uint256",
              "name": "tokenId",
              "type": "uint256"
            }
          ],
          "name": "Transfer",
          "type": "event"
        },
        {
          "inputs": [
            {
              "internalType": "address",
              "name": "to",
              "type": "address"
            },
            {
              "internalType": "uint256",
              "name": "tokenId",
              "type": "uint256"
            }
          ],
          "name": "approve",
          "outputs": [],
          "stateMutability": "nonpayable",
          "type": "function"
        },
        {
          "inputs": [
            {
              "internalType": "address",
              "name": "owner",
              "type": "address"
            }
          ],
          "name": "balanceOf",
          "outputs": [
            {
              "internalType": "uint256",
              "name": "",
              "type": "uint256"
            }
          ],
          "stateMutability": "view",
          "type": "function"
        },
        {
          "inputs": [
            {
              "internalType": "string",
              "name": "_canvasId",
              "type": "string"
            }
          ],
          "name": "buy",
          "outputs": [],
          "stateMutability": "payable",
          "type": "function"
        },
        {
          "inputs": [
            {
              "internalType": "string",
              "name": "",
              "type": "string"
            },
            {
              "internalType": "uint256",
              "name": "",
              "type": "uint256"
            }
          ],
          "name": "canvasIdToTileIds",
          "outputs": [
            {
              "internalType": "uint256",
              "name": "",
              "type": "uint256"
            }
          ],
          "stateMutability": "view",
          "type": "function"
        },
        {
          "inputs": [
            {
              "internalType": "uint256",
              "name": "_tileId",
              "type": "uint256"
            }
          ],
          "name": "downvote",
          "outputs": [],
          "stateMutability": "nonpayable",
          "type": "function"
        },
        {
          "inputs": [
            {
              "internalType": "uint256",
              "name": "tokenId",
              "type": "uint256"
            }
          ],
          "name": "getApproved",
          "outputs": [
            {
              "internalType": "address",
              "name": "",
              "type": "address"
            }
          ],
          "stateMutability": "view",
          "type": "function"
        },
        {
          "inputs": [
            {
              "internalType": "address",
              "name": "owner",
              "type": "address"
            },
            {
              "internalType": "address",
              "name": "operator",
              "type": "address"
            }
          ],
          "name": "isApprovedForAll",
          "outputs": [
            {
              "internalType": "bool",
              "name": "",
              "type": "bool"
            }
          ],
          "stateMutability": "view",
          "type": "function"
        },
        {
          "inputs": [
            {
              "internalType": "address",
              "name": "recipient",
              "type": "address"
            },
            {
              "internalType": "string",
              "name": "uri",
              "type": "string"
            },
            {
              "internalType": "string",
              "name": "canvasId",
              "type": "string"
            }
          ],
          "name": "mint",
          "outputs": [
            {
              "internalType": "uint256",
              "name": "",
              "type": "uint256"
            }
          ],
          "stateMutability": "nonpayable",
          "type": "function"
        },
        {
          "inputs": [],
          "name": "name",
          "outputs": [
            {
              "internalType": "string",
              "name": "",
              "type": "string"
            }
          ],
          "stateMutability": "view",
          "type": "function"
        },
        {
          "inputs": [],
          "name": "owner",
          "outputs": [
            {
              "internalType": "address",
              "name": "",
              "type": "address"
            }
          ],
          "stateMutability": "view",
          "type": "function"
        },
        {
          "inputs": [
            {
              "internalType": "uint256",
              "name": "tokenId",
              "type": "uint256"
            }
          ],
          "name": "ownerOf",
          "outputs": [
            {
              "internalType": "address",
              "name": "",
              "type": "address"
            }
          ],
          "stateMutability": "view",
          "type": "function"
        },
        {
          "inputs": [],
          "name": "renounceOwnership",
          "outputs": [],
          "stateMutability": "nonpayable",
          "type": "function"
        },
        {
          "inputs": [
            {
              "internalType": "address",
              "name": "from",
              "type": "address"
            },
            {
              "internalType": "address",
              "name": "to",
              "type": "address"
            },
            {
              "internalType": "uint256",
              "name": "tokenId",
              "type": "uint256"
            }
          ],
          "name": "safeTransferFrom",
          "outputs": [],
          "stateMutability": "nonpayable",
          "type": "function"
        },
        {
          "inputs": [
            {
              "internalType": "address",
              "name": "from",
              "type": "address"
            },
            {
              "internalType": "address",
              "name": "to",
              "type": "address"
            },
            {
              "internalType": "uint256",
              "name": "tokenId",
              "type": "uint256"
            },
            {
              "internalType": "bytes",
              "name": "_data",
              "type": "bytes"
            }
          ],
          "name": "safeTransferFrom",
          "outputs": [],
          "stateMutability": "nonpayable",
          "type": "function"
        },
        {
          "inputs": [
            {
              "internalType": "address",
              "name": "operator",
              "type": "address"
            },
            {
              "internalType": "bool",
              "name": "approved",
              "type": "bool"
            }
          ],
          "name": "setApprovalForAll",
          "outputs": [],
          "stateMutability": "nonpayable",
          "type": "function"
        },
        {
          "inputs": [
            {
              "internalType": "bytes4",
              "name": "interfaceId",
              "type": "bytes4"
            }
          ],
          "name": "supportsInterface",
          "outputs": [
            {
              "internalType": "bool",
              "name": "",
              "type": "bool"
            }
          ],
          "stateMutability": "view",
          "type": "function"
        },
        {
          "inputs": [],
          "name": "symbol",
          "outputs": [
            {
              "internalType": "string",
              "name": "",
              "type": "string"
            }
          ],
          "stateMutability": "view",
          "type": "function"
        },
        {
          "inputs": [
            {
              "internalType": "uint256",
              "name": "index",
              "type": "uint256"
            }
          ],
          "name": "tokenByIndex",
          "outputs": [
            {
              "internalType": "uint256",
              "name": "",
              "type": "uint256"
            }
          ],
          "stateMutability": "view",
          "type": "function"
        },
        {
          "inputs": [
            {
              "internalType": "address",
              "name": "owner",
              "type": "address"
            },
            {
              "internalType": "uint256",
              "name": "index",
              "type": "uint256"
            }
          ],
          "name": "tokenOfOwnerByIndex",
          "outputs": [
            {
              "internalType": "uint256",
              "name": "",
              "type": "uint256"
            }
          ],
          "stateMutability": "view",
          "type": "function"
        },
        {
          "inputs": [
            {
              "internalType": "uint256",
              "name": "tokenId",
              "type": "uint256"
            }
          ],
          "name": "tokenURI",
          "outputs": [
            {
              "internalType": "string",
              "name": "",
              "type": "string"
            }
          ],
          "stateMutability": "view",
          "type": "function"
        },
        {
          "inputs": [],
          "name": "totalSupply",
          "outputs": [
            {
              "internalType": "uint256",
              "name": "",
              "type": "uint256"
            }
          ],
          "stateMutability": "view",
          "type": "function"
        },
        {
          "inputs": [
            {
              "internalType": "address",
              "name": "from",
              "type": "address"
            },
            {
              "internalType": "address",
              "name": "to",
              "type": "address"
            },
            {
              "internalType": "uint256",
              "name": "tokenId",
              "type": "uint256"
            }
          ],
          "name": "transferFrom",
          "outputs": [],
          "stateMutability": "nonpayable",
          "type": "function"
        },
        {
          "inputs": [
            {
              "internalType": "address",
              "name": "newOwner",
              "type": "address"
            }
          ],
          "name": "transferOwnership",
          "outputs": [],
          "stateMutability": "nonpayable",
          "type": "function"
        },
        {
          "inputs": [
            {
              "internalType": "uint256",
              "name": "_tileId",
              "type": "uint256"
            }
          ],
          "name": "upvote",
          "outputs": [],
          "stateMutability": "nonpayable",
          "type": "function"
        }
      ],
      "evm": {
        "bytecode": {
          "linkReferences": {},
          "object": "60806040523480156200001157600080fd5b5060408051808201825260078082526610d3d3d410549560ca1b6020808401828152855180870190965292855284015281519192916200005491600091620000e3565b5080516200006a906001906020840190620000e3565b50505062000087620000816200008d60201b60201c565b62000091565b620001c6565b3390565b600680546001600160a01b038381166001600160a01b0319831681179093556040519116919082907f8be0079c531659141344cd1fd0a4f28419497f9722a3daafe3b4186f6b6457e090600090a35050565b828054620000f19062000189565b90600052602060002090601f01602090048101928262000115576000855562000160565b82601f106200013057805160ff191683800117855562000160565b8280016001018555821562000160579182015b828111156200016057825182559160200191906001019062000143565b506200016e92915062000172565b5090565b5b808211156200016e576000815560010162000173565b6002810460018216806200019e57607f821691505b60208210811415620001c057634e487b7160e01b600052602260045260246000fd5b50919050565b6120dd80620001d66000396000f3fe60806040526004361061014b5760003560e01c806370a08231116100b6578063b88d4fde1161006f578063b88d4fde1461038b578063c87b56dd146103ab578063cfcfcdb1146103cb578063e985e9c5146103eb578063f2fde38b1461040b578063f31fdad41461042b5761014b565b806370a08231146102ec578063715018a61461030c5780638da5cb5b1461032157806395d89b4114610336578063990711901461034b578063a22cb4651461036b5761014b565b806323b872dd1161010857806323b872dd146102395780632f745c591461025957806342842e0e14610279578063492cc769146102995780634f6ccce7146102ac5780636352211e146102cc5761014b565b806301ddf0701461015057806301ffc9a71461017257806306fdde03146101a8578063081812fc146101ca578063095ea7b3146101f757806318160ddd14610217575b600080fd5b34801561015c57600080fd5b5061017061016b3660046118d1565b61044b565b005b34801561017e57600080fd5b5061019261018d366004611823565b6104aa565b60405161019f9190611982565b60405180910390f35b3480156101b457600080fd5b506101bd6104bd565b60405161019f919061198d565b3480156101d657600080fd5b506101ea6101e53660046118d1565b61054f565b60405161019f9190611931565b34801561020357600080fd5b506101706102123660046117fa565b61059b565b34801561022357600080fd5b5061022c610633565b60405161019f9190611f0b565b34801561024557600080fd5b5061017061025436600461169b565b610639565b34801561026557600080fd5b5061022c6102743660046117fa565b610671565b34801561028557600080fd5b5061017061029436600461169b565b6106c3565b6101706102a736600461185b565b6106de565b3480156102b857600080fd5b5061022c6102c73660046118d1565b61088f565b3480156102d857600080fd5b506101ea6102e73660046118d1565b6108ea565b3480156102f857600080fd5b5061022c61030736600461164f565b61091f565b34801561031857600080fd5b50610170610963565b34801561032d57600080fd5b506101ea6109ae565b34801561034257600080fd5b506101bd6109bd565b34801561035757600080fd5b5061022c610366366004611789565b6109cc565b34801561037757600080fd5b5061017061038636600461174f565b610a36565b34801561039757600080fd5b506101706103a63660046116d6565b610b04565b3480156103b757600080fd5b506101bd6103c63660046118d1565b610b43565b3480156103d757600080fd5b5061022c6103e636600461188e565b610c09565b3480156103f757600080fd5b50610192610406366004611669565b610c49565b34801561041757600080fd5b5061017061042636600461164f565b610c77565b34801561043757600080fd5b506101706104463660046118d1565b610ce8565b6000818152600e6020526040812080546001929061046a908490611f14565b90915550506040517ff27464edc066dd688f4eb358358a61a7aa6bb29bae87378c38005b2b78a0d9cf9061049f903390611931565b60405180910390a150565b60006104b582610d07565b90505b919050565b6060600080546104cc9061200f565b80601f01602080910402602001604051908101604052809291908181526020018280546104f89061200f565b80156105455780601f1061051a57610100808354040283529160200191610545565b820191906000526020600020905b81548152906001019060200180831161052857829003601f168201915b5050505050905090565b600061055a82610d2c565b61057f5760405162461bcd60e51b815260040161057690611cdd565b60405180910390fd5b506000908152600460205260409020546001600160a01b031690565b60006105a6826108ea565b9050806001600160a01b0316836001600160a01b031614156105da5760405162461bcd60e51b815260040161057690611e2d565b806001600160a01b03166105ec610d49565b6001600160a01b03161480610608575061060881610406610d49565b6106245760405162461bcd60e51b815260040161057690611bb8565b61062e8383610d4d565b505050565b60095490565b61064a610644610d49565b82610dbb565b6106665760405162461bcd60e51b815260040161057690611e6e565b61062e838383610e40565b600061067c8361091f565b821061069a5760405162461bcd60e51b8152600401610576906119a0565b506001600160a01b03919091166000908152600760209081526040808320938352929052205490565b61062e83838360405180602001604052806000815250610b04565b600034116106fe5760405162461bcd60e51b815260040161057690611b81565b6000600d826040516107109190611915565b908152604080519182900360209081018320805480830285018301909352828452919083018282801561076257602002820191906000526020600020905b81548152602001906001019080831161074e575b50505050509050600081511161078a5760405162461bcd60e51b815260040161057690611da7565b60005b81518110156108535760006107c88383815181106107bb57634e487b7160e01b600052603260045260246000fd5b60200260200101516108ea565b90506107fc81338585815181106107ef57634e487b7160e01b600052603260045260246000fd5b6020026020010151610e40565b806001600160a01b03166108fc8451346108169190611f6d565b6040518115909202916000818181858888f1935050505015801561083e573d6000803e3d6000fd5b5050808061084b9061204a565b91505061078d565b507f41fe112b7ad2237e7367a0813bb844e8d808d60474d19a239f2d438d55339612336040516108839190611931565b60405180910390a15050565b6000610899610633565b82106108b75760405162461bcd60e51b815260040161057690611ebf565b600982815481106108d857634e487b7160e01b600052603260045260246000fd5b90600052602060002001549050919050565b6000818152600260205260408120546001600160a01b0316806104b55760405162461bcd60e51b815260040161057690611c5f565b60006001600160a01b0382166109475760405162461bcd60e51b815260040161057690611c15565b506001600160a01b031660009081526003602052604090205490565b61096b610d49565b6001600160a01b031661097c6109ae565b6001600160a01b0316146109a25760405162461bcd60e51b815260040161057690611d29565b6109ac6000610f6d565b565b6006546001600160a01b031690565b6060600180546104cc9061200f565b60006109d8600b610fbf565b60006109e4600b610fc8565b90506109f08582610fcc565b6109fa81856110ab565b600d83604051610a0a9190611915565b908152604051602091819003820190208054600181018255600091825291902001819055949350505050565b610a3e610d49565b6001600160a01b0316826001600160a01b03161415610a6f5760405162461bcd60e51b815260040161057690611afe565b8060056000610a7c610d49565b6001600160a01b03908116825260208083019390935260409182016000908120918716808252919093529120805460ff191692151592909217909155610ac0610d49565b6001600160a01b03167f17307eab39ab6107e8899845ad3d59bd9653f200f220920489ca2b5937696c3183604051610af89190611982565b60405180910390a35050565b610b15610b0f610d49565b83610dbb565b610b315760405162461bcd60e51b815260040161057690611e6e565b610b3d848484846110ca565b50505050565b6060610b4e82610d2c565b610b6a5760405162461bcd60e51b815260040161057690611dde565b6000828152600c602052604081208054610b839061200f565b80601f0160208091040260200160405190810160405280929190818152602001828054610baf9061200f565b8015610bfc5780601f10610bd157610100808354040283529160200191610bfc565b820191906000526020600020905b815481529060010190602001808311610bdf57829003601f168201915b5093979650505050505050565b8151602081840181018051600d825292820191850191909120919052805482908110610c3457600080fd5b90600052602060002001600091509150505481565b6001600160a01b03918216600090815260056020908152604080832093909416825291909152205460ff1690565b610c7f610d49565b6001600160a01b0316610c906109ae565b6001600160a01b031614610cb65760405162461bcd60e51b815260040161057690611d29565b6001600160a01b038116610cdc5760405162461bcd60e51b815260040161057690611a3d565b610ce581610f6d565b50565b6000818152600e6020526040812080546001929061046a908490611f8d565b60006001600160e01b0319821663780e9d6360e01b14806104b557506104b5826110fd565b6000908152600260205260409020546001600160a01b0316151590565b3390565b600081815260046020526040902080546001600160a01b0319166001600160a01b0384169081179091558190610d82826108ea565b6001600160a01b03167f8c5be1e5ebec7d5bd14f71427d1e84f3dd0314c0f7b2291e5b200ac8c7c3b92560405160405180910390a45050565b6000610dc682610d2c565b610de25760405162461bcd60e51b815260040161057690611b35565b6000610ded836108ea565b9050806001600160a01b0316846001600160a01b03161480610e285750836001600160a01b0316610e1d8461054f565b6001600160a01b0316145b80610e385750610e388185610c49565b949350505050565b826001600160a01b0316610e53826108ea565b6001600160a01b031614610e795760405162461bcd60e51b815260040161057690611d5e565b6001600160a01b038216610e9f5760405162461bcd60e51b815260040161057690611aba565b610eaa83838361113d565b610eb5600082610d4d565b6001600160a01b0383166000908152600360205260408120805460019290610ede908490611fcc565b90915550506001600160a01b0382166000908152600360205260408120805460019290610f0c908490611f55565b909155505060008181526002602052604080822080546001600160a01b0319166001600160a01b0386811691821790925591518493918716917fddf252ad1be2c89b69c2b068fc378daa952ba7f163c4a11628f55a4df523b3ef91a4505050565b600680546001600160a01b038381166001600160a01b0319831681179093556040519116919082907f8be0079c531659141344cd1fd0a4f28419497f9722a3daafe3b4186f6b6457e090600090a35050565b80546001019055565b5490565b6001600160a01b038216610ff25760405162461bcd60e51b815260040161057690611ca8565b610ffb81610d2c565b156110185760405162461bcd60e51b815260040161057690611a83565b6110246000838361113d565b6001600160a01b038216600090815260036020526040812080546001929061104d908490611f55565b909155505060008181526002602052604080822080546001600160a01b0319166001600160a01b03861690811790915590518392907fddf252ad1be2c89b69c2b068fc378daa952ba7f163c4a11628f55a4df523b3ef908290a45050565b6000828152600c60209081526040909120825161062e92840190611509565b6110d5848484610e40565b6110e184848484611148565b610b3d5760405162461bcd60e51b8152600401610576906119eb565b60006001600160e01b031982166380ac58cd60e01b148061112e57506001600160e01b03198216635b5e139f60e01b145b806104b557506104b582611263565b61062e83838361127c565b600061115c846001600160a01b0316611305565b1561125857836001600160a01b031663150b7a02611178610d49565b8786866040518563ffffffff1660e01b815260040161119a9493929190611945565b602060405180830381600087803b1580156111b457600080fd5b505af19250505080156111e4575060408051601f3d908101601f191682019092526111e19181019061183f565b60015b61123e573d808015611212576040519150601f19603f3d011682016040523d82523d6000602084013e611217565b606091505b5080516112365760405162461bcd60e51b8152600401610576906119eb565b805181602001fd5b6001600160e01b031916630a85bd0160e11b149050610e38565b506001949350505050565b6001600160e01b031981166301ffc9a760e01b14919050565b61128783838361062e565b6001600160a01b0383166112a35761129e8161130b565b6112c6565b816001600160a01b0316836001600160a01b0316146112c6576112c6838261134f565b6001600160a01b0382166112e2576112dd816113ec565b61062e565b826001600160a01b0316826001600160a01b03161461062e5761062e82826114c5565b3b151590565b600980546000838152600a60205260408120829055600182018355919091527f6e1540171b6c0c960b71a7020d9f60077f6af931a8bbf590da0223dacf75c7af0155565b6000600161135c8461091f565b6113669190611fcc565b6000838152600860205260409020549091508082146113b9576001600160a01b03841660009081526007602090815260408083208584528252808320548484528184208190558352600890915290208190555b5060009182526008602090815260408084208490556001600160a01b039094168352600781528383209183525290812055565b6009546000906113fe90600190611fcc565b6000838152600a60205260408120546009805493945090928490811061143457634e487b7160e01b600052603260045260246000fd5b90600052602060002001549050806009838154811061146357634e487b7160e01b600052603260045260246000fd5b6000918252602080832090910192909255828152600a909152604080822084905585825281205560098054806114a957634e487b7160e01b600052603160045260246000fd5b6001900381819060005260206000200160009055905550505050565b60006114d08361091f565b6001600160a01b039093166000908152600760209081526040808320868452825280832085905593825260089052919091209190915550565b8280546115159061200f565b90600052602060002090601f016020900481019282611537576000855561157d565b82601f1061155057805160ff191683800117855561157d565b8280016001018555821561157d579182015b8281111561157d578251825591602001919060010190611562565b5061158992915061158d565b5090565b5b80821115611589576000815560010161158e565b600067ffffffffffffffff808411156115bd576115bd61207b565b604051601f8501601f1916810160200182811182821017156115e1576115e161207b565b6040528481529150818385018610156115f957600080fd5b8484602083013760006020868301015250509392505050565b80356001600160a01b03811681146104b857600080fd5b600082601f830112611639578081fd5b611648838335602085016115a2565b9392505050565b600060208284031215611660578081fd5b61164882611612565b6000806040838503121561167b578081fd5b61168483611612565b915061169260208401611612565b90509250929050565b6000806000606084860312156116af578081fd5b6116b884611612565b92506116c660208501611612565b9150604084013590509250925092565b600080600080608085870312156116eb578081fd5b6116f485611612565b935061170260208601611612565b925060408501359150606085013567ffffffffffffffff811115611724578182fd5b8501601f81018713611734578182fd5b611743878235602084016115a2565b91505092959194509250565b60008060408385031215611761578182fd5b61176a83611612565b91506020830135801515811461177e578182fd5b809150509250929050565b60008060006060848603121561179d578283fd5b6117a684611612565b9250602084013567ffffffffffffffff808211156117c2578384fd5b6117ce87838801611629565b935060408601359150808211156117e3578283fd5b506117f086828701611629565b9150509250925092565b6000806040838503121561180c578182fd5b61181583611612565b946020939093013593505050565b600060208284031215611834578081fd5b813561164881612091565b600060208284031215611850578081fd5b815161164881612091565b60006020828403121561186c578081fd5b813567ffffffffffffffff811115611882578182fd5b610e3884828501611629565b600080604083850312156118a0578182fd5b823567ffffffffffffffff8111156118b6578283fd5b6118c285828601611629565b95602094909401359450505050565b6000602082840312156118e2578081fd5b5035919050565b60008151808452611901816020860160208601611fe3565b601f01601f19169290920160200192915050565b60008251611927818460208701611fe3565b9190910192915050565b6001600160a01b0391909116815260200190565b6001600160a01b0385811682528416602082015260408101839052608060608201819052600090611978908301846118e9565b9695505050505050565b901515815260200190565b60006020825261164860208301846118e9565b6020808252602b908201527f455243373231456e756d657261626c653a206f776e657220696e646578206f7560408201526a74206f6620626f756e647360a81b606082015260800190565b60208082526032908201527f4552433732313a207472616e7366657220746f206e6f6e20455243373231526560408201527131b2b4bb32b91034b6b83632b6b2b73a32b960711b606082015260800190565b60208082526026908201527f4f776e61626c653a206e6577206f776e657220697320746865207a65726f206160408201526564647265737360d01b606082015260800190565b6020808252601c908201527f4552433732313a20746f6b656e20616c7265616479206d696e74656400000000604082015260600190565b60208082526024908201527f4552433732313a207472616e7366657220746f20746865207a65726f206164646040820152637265737360e01b606082015260800190565b60208082526019908201527f4552433732313a20617070726f766520746f2063616c6c657200000000000000604082015260600190565b6020808252602c908201527f4552433732313a206f70657261746f7220717565727920666f72206e6f6e657860408201526b34b9ba32b73a103a37b5b2b760a11b606082015260800190565b60208082526017908201527f506c656173652073656e6420736f6d6520746f6b656e73000000000000000000604082015260600190565b60208082526038908201527f4552433732313a20617070726f76652063616c6c6572206973206e6f74206f7760408201527f6e6572206e6f7220617070726f76656420666f7220616c6c0000000000000000606082015260800190565b6020808252602a908201527f4552433732313a2062616c616e636520717565727920666f7220746865207a65604082015269726f206164647265737360b01b606082015260800190565b60208082526029908201527f4552433732313a206f776e657220717565727920666f72206e6f6e657869737460408201526832b73a103a37b5b2b760b91b606082015260800190565b6020808252818101527f4552433732313a206d696e7420746f20746865207a65726f2061646472657373604082015260600190565b6020808252602c908201527f4552433732313a20617070726f76656420717565727920666f72206e6f6e657860408201526b34b9ba32b73a103a37b5b2b760a11b606082015260800190565b6020808252818101527f4f776e61626c653a2063616c6c6572206973206e6f7420746865206f776e6572604082015260600190565b60208082526029908201527f4552433732313a207472616e73666572206f6620746f6b656e2074686174206960408201526839903737ba1037bbb760b91b606082015260800190565b60208082526017908201527f546869732063616e76617320686173206e6f2074696c65000000000000000000604082015260600190565b6020808252602f908201527f4552433732314d657461646174613a2055524920717565727920666f72206e6f60408201526e3732bc34b9ba32b73a103a37b5b2b760891b606082015260800190565b60208082526021908201527f4552433732313a20617070726f76616c20746f2063757272656e74206f776e656040820152603960f91b606082015260800190565b60208082526031908201527f4552433732313a207472616e736665722063616c6c6572206973206e6f74206f6040820152701ddb995c881b9bdc88185c1c1c9bdd9959607a1b606082015260800190565b6020808252602c908201527f455243373231456e756d657261626c653a20676c6f62616c20696e646578206f60408201526b7574206f6620626f756e647360a01b606082015260800190565b90815260200190565b600080821280156001600160ff1b0384900385131615611f3657611f36612065565b600160ff1b8390038412811615611f4f57611f4f612065565b50500190565b60008219821115611f6857611f68612065565b500190565b600082611f8857634e487b7160e01b81526012600452602481fd5b500490565b60008083128015600160ff1b850184121615611fab57611fab612065565b6001600160ff1b0384018313811615611fc657611fc6612065565b50500390565b600082821015611fde57611fde612065565b500390565b60005b83811015611ffe578181015183820152602001611fe6565b83811115610b3d5750506000910152565b60028104600182168061202357607f821691505b6020821081141561204457634e487b7160e01b600052602260045260246000fd5b50919050565b600060001982141561205e5761205e612065565b5060010190565b634e487b7160e01b600052601160045260246000fd5b634e487b7160e01b600052604160045260246000fd5b6001600160e01b031981168114610ce557600080fdfea2646970667358221220035e461b21c6c67e45c97a6123145ba46bac447ba7a68093e5beb78a14253de664736f6c63430008000033",
          "opcodes": "PUSH1 0x80 PUSH1 0x40 MSTORE CALLVALUE DUP1 ISZERO PUSH3 0x11 JUMPI PUSH1 0x0 DUP1 REVERT JUMPDEST POP PUSH1 0x40 DUP1 MLOAD DUP1 DUP3 ADD DUP3 MSTORE PUSH1 0x7 DUP1 DUP3 MSTORE PUSH7 0x10D3D3D4105495 PUSH1 0xCA SHL PUSH1 0x20 DUP1 DUP5 ADD DUP3 DUP2 MSTORE DUP6 MLOAD DUP1 DUP8 ADD SWAP1 SWAP7 MSTORE SWAP3 DUP6 MSTORE DUP5 ADD MSTORE DUP2 MLOAD SWAP2 SWAP3 SWAP2 PUSH3 0x54 SWAP2 PUSH1 0x0 SWAP2 PUSH3 0xE3 JUMP JUMPDEST POP DUP1 MLOAD PUSH3 0x6A SWAP1 PUSH1 0x1 SWAP1 PUSH1 0x20 DUP5 ADD SWAP1 PUSH3 0xE3 JUMP JUMPDEST POP POP POP PUSH3 0x87 PUSH3 0x81 PUSH3 0x8D PUSH1 0x20 SHL PUSH1 0x20 SHR JUMP JUMPDEST PUSH3 0x91 JUMP JUMPDEST PUSH3 0x1C6 JUMP JUMPDEST CALLER SWAP1 JUMP JUMPDEST PUSH1 0x6 DUP1 SLOAD PUSH1 0x1 PUSH1 0x1 PUSH1 0xA0 SHL SUB DUP4 DUP2 AND PUSH1 0x1 PUSH1 0x1 PUSH1 0xA0 SHL SUB NOT DUP4 AND DUP2 OR SWAP1 SWAP4 SSTORE PUSH1 0x40 MLOAD SWAP2 AND SWAP2 SWAP1 DUP3 SWAP1 PUSH32 0x8BE0079C531659141344CD1FD0A4F28419497F9722A3DAAFE3B4186F6B6457E0 SWAP1 PUSH1 0x0 SWAP1 LOG3 POP POP JUMP JUMPDEST DUP3 DUP1 SLOAD PUSH3 0xF1 SWAP1 PUSH3 0x189 JUMP JUMPDEST SWAP1 PUSH1 0x0 MSTORE PUSH1 0x20 PUSH1 0x0 KECCAK256 SWAP1 PUSH1 0x1F ADD PUSH1 0x20 SWAP1 DIV DUP2 ADD SWAP3 DUP3 PUSH3 0x115 JUMPI PUSH1 0x0 DUP6 SSTORE PUSH3 0x160 JUMP JUMPDEST DUP3 PUSH1 0x1F LT PUSH3 0x130 JUMPI DUP1 MLOAD PUSH1 0xFF NOT AND DUP4 DUP1 ADD OR DUP6 SSTORE PUSH3 0x160 JUMP JUMPDEST DUP3 DUP1 ADD PUSH1 0x1 ADD DUP6 SSTORE DUP3 ISZERO PUSH3 0x160 JUMPI SWAP2 DUP3 ADD JUMPDEST DUP3 DUP2 GT ISZERO PUSH3 0x160 JUMPI DUP3 MLOAD DUP3 SSTORE SWAP2 PUSH1 0x20 ADD SWAP2 SWAP1 PUSH1 0x1 ADD SWAP1 PUSH3 0x143 JUMP JUMPDEST POP PUSH3 0x16E SWAP3 SWAP2 POP PUSH3 0x172 JUMP JUMPDEST POP SWAP1 JUMP JUMPDEST JUMPDEST DUP1 DUP3 GT ISZERO PUSH3 0x16E JUMPI PUSH1 0x0 DUP2 SSTORE PUSH1 0x1 ADD PUSH3 0x173 JUMP JUMPDEST PUSH1 0x2 DUP2 DIV PUSH1 0x1 DUP3 AND DUP1 PUSH3 0x19E JUMPI PUSH1 0x7F DUP3 AND SWAP2 POP JUMPDEST PUSH1 0x20 DUP3 LT DUP2 EQ ISZERO PUSH3 0x1C0 JUMPI PUSH4 0x4E487B71 PUSH1 0xE0 SHL PUSH1 0x0 MSTORE PUSH1 0x22 PUSH1 0x4 MSTORE PUSH1 0x24 PUSH1 0x0 REVERT JUMPDEST POP SWAP2 SWAP1 POP JUMP JUMPDEST PUSH2 0x20DD DUP1 PUSH3 0x1D6 PUSH1 0x0 CODECOPY PUSH1 0x0 RETURN INVALID PUSH1 0x80 PUSH1 0x40 MSTORE PUSH1 0x4 CALLDATASIZE LT PUSH2 0x14B JUMPI PUSH1 0x0 CALLDATALOAD PUSH1 0xE0 SHR DUP1 PUSH4 0x70A08231 GT PUSH2 0xB6 JUMPI DUP1 PUSH4 0xB88D4FDE GT PUSH2 0x6F JUMPI DUP1 PUSH4 0xB88D4FDE EQ PUSH2 0x38B JUMPI DUP1 PUSH4 0xC87B56DD EQ PUSH2 0x3AB JUMPI DUP1 PUSH4 0xCFCFCDB1 EQ PUSH2 0x3CB JUMPI DUP1 PUSH4 0xE985E9C5 EQ PUSH2 0x3EB JUMPI DUP1 PUSH4 0xF2FDE38B EQ PUSH2 0x40B JUMPI DUP1 PUSH4 0xF31FDAD4 EQ PUSH2 0x42B JUMPI PUSH2 0x14B JUMP JUMPDEST DUP1 PUSH4 0x70A08231 EQ PUSH2 0x2EC JUMPI DUP1 PUSH4 0x715018A6 EQ PUSH2 0x30C JUMPI DUP1 PUSH4 0x8DA5CB5B EQ PUSH2 0x321 JUMPI DUP1 PUSH4 0x95D89B41 EQ PUSH2 0x336 JUMPI DUP1 PUSH4 0x99071190 EQ PUSH2 0x34B JUMPI DUP1 PUSH4 0xA22CB465 EQ PUSH2 0x36B JUMPI PUSH2 0x14B JUMP JUMPDEST DUP1 PUSH4 0x23B872DD GT PUSH2 0x108 JUMPI DUP1 PUSH4 0x23B872DD EQ PUSH2 0x239 JUMPI DUP1 PUSH4 0x2F745C59 EQ PUSH2 0x259 JUMPI DUP1 PUSH4 0x42842E0E EQ PUSH2 0x279 JUMPI DUP1 PUSH4 0x492CC769 EQ PUSH2 0x299 JUMPI DUP1 PUSH4 0x4F6CCCE7 EQ PUSH2 0x2AC JUMPI DUP1 PUSH4 0x6352211E EQ PUSH2 0x2CC JUMPI PUSH2 0x14B JUMP JUMPDEST DUP1 PUSH4 0x1DDF070 EQ PUSH2 0x150 JUMPI DUP1 PUSH4 0x1FFC9A7 EQ PUSH2 0x172 JUMPI DUP1 PUSH4 0x6FDDE03 EQ PUSH2 0x1A8 JUMPI DUP1 PUSH4 0x81812FC EQ PUSH2 0x1CA JUMPI DUP1 PUSH4 0x95EA7B3 EQ PUSH2 0x1F7 JUMPI DUP1 PUSH4 0x18160DDD EQ PUSH2 0x217 JUMPI JUMPDEST PUSH1 0x0 DUP1 REVERT JUMPDEST CALLVALUE DUP1 ISZERO PUSH2 0x15C JUMPI PUSH1 0x0 DUP1 REVERT JUMPDEST POP PUSH2 0x170 PUSH2 0x16B CALLDATASIZE PUSH1 0x4 PUSH2 0x18D1 JUMP JUMPDEST PUSH2 0x44B JUMP JUMPDEST STOP JUMPDEST CALLVALUE DUP1 ISZERO PUSH2 0x17E JUMPI PUSH1 0x0 DUP1 REVERT JUMPDEST POP PUSH2 0x192 PUSH2 0x18D CALLDATASIZE PUSH1 0x4 PUSH2 0x1823 JUMP JUMPDEST PUSH2 0x4AA JUMP JUMPDEST PUSH1 0x40 MLOAD PUSH2 0x19F SWAP2 SWAP1 PUSH2 0x1982 JUMP JUMPDEST PUSH1 0x40 MLOAD DUP1 SWAP2 SUB SWAP1 RETURN JUMPDEST CALLVALUE DUP1 ISZERO PUSH2 0x1B4 JUMPI PUSH1 0x0 DUP1 REVERT JUMPDEST POP PUSH2 0x1BD PUSH2 0x4BD JUMP JUMPDEST PUSH1 0x40 MLOAD PUSH2 0x19F SWAP2 SWAP1 PUSH2 0x198D JUMP JUMPDEST CALLVALUE DUP1 ISZERO PUSH2 0x1D6 JUMPI PUSH1 0x0 DUP1 REVERT JUMPDEST POP PUSH2 0x1EA PUSH2 0x1E5 CALLDATASIZE PUSH1 0x4 PUSH2 0x18D1 JUMP JUMPDEST PUSH2 0x54F JUMP JUMPDEST PUSH1 0x40 MLOAD PUSH2 0x19F SWAP2 SWAP1 PUSH2 0x1931 JUMP JUMPDEST CALLVALUE DUP1 ISZERO PUSH2 0x203 JUMPI PUSH1 0x0 DUP1 REVERT JUMPDEST POP PUSH2 0x170 PUSH2 0x212 CALLDATASIZE PUSH1 0x4 PUSH2 0x17FA JUMP JUMPDEST PUSH2 0x59B JUMP JUMPDEST CALLVALUE DUP1 ISZERO PUSH2 0x223 JUMPI PUSH1 0x0 DUP1 REVERT JUMPDEST POP PUSH2 0x22C PUSH2 0x633 JUMP JUMPDEST PUSH1 0x40 MLOAD PUSH2 0x19F SWAP2 SWAP1 PUSH2 0x1F0B JUMP JUMPDEST CALLVALUE DUP1 ISZERO PUSH2 0x245 JUMPI PUSH1 0x0 DUP1 REVERT JUMPDEST POP PUSH2 0x170 PUSH2 0x254 CALLDATASIZE PUSH1 0x4 PUSH2 0x169B JUMP JUMPDEST PUSH2 0x639 JUMP JUMPDEST CALLVALUE DUP1 ISZERO PUSH2 0x265 JUMPI PUSH1 0x0 DUP1 REVERT JUMPDEST POP PUSH2 0x22C PUSH2 0x274 CALLDATASIZE PUSH1 0x4 PUSH2 0x17FA JUMP JUMPDEST PUSH2 0x671 JUMP JUMPDEST CALLVALUE DUP1 ISZERO PUSH2 0x285 JUMPI PUSH1 0x0 DUP1 REVERT JUMPDEST POP PUSH2 0x170 PUSH2 0x294 CALLDATASIZE PUSH1 0x4 PUSH2 0x169B JUMP JUMPDEST PUSH2 0x6C3 JUMP JUMPDEST PUSH2 0x170 PUSH2 0x2A7 CALLDATASIZE PUSH1 0x4 PUSH2 0x185B JUMP JUMPDEST PUSH2 0x6DE JUMP JUMPDEST CALLVALUE DUP1 ISZERO PUSH2 0x2B8 JUMPI PUSH1 0x0 DUP1 REVERT JUMPDEST POP PUSH2 0x22C PUSH2 0x2C7 CALLDATASIZE PUSH1 0x4 PUSH2 0x18D1 JUMP JUMPDEST PUSH2 0x88F JUMP JUMPDEST CALLVALUE DUP1 ISZERO PUSH2 0x2D8 JUMPI PUSH1 0x0 DUP1 REVERT JUMPDEST POP PUSH2 0x1EA PUSH2 0x2E7 CALLDATASIZE PUSH1 0x4 PUSH2 0x18D1 JUMP JUMPDEST PUSH2 0x8EA JUMP JUMPDEST CALLVALUE DUP1 ISZERO PUSH2 0x2F8 JUMPI PUSH1 0x0 DUP1 REVERT JUMPDEST POP PUSH2 0x22C PUSH2 0x307 CALLDATASIZE PUSH1 0x4 PUSH2 0x164F JUMP JUMPDEST PUSH2 0x91F JUMP JUMPDEST CALLVALUE DUP1 ISZERO PUSH2 0x318 JUMPI PUSH1 0x0 DUP1 REVERT JUMPDEST POP PUSH2 0x170 PUSH2 0x963 JUMP JUMPDEST CALLVALUE DUP1 ISZERO PUSH2 0x32D JUMPI PUSH1 0x0 DUP1 REVERT JUMPDEST POP PUSH2 0x1EA PUSH2 0x9AE JUMP JUMPDEST CALLVALUE DUP1 ISZERO PUSH2 0x342 JUMPI PUSH1 0x0 DUP1 REVERT JUMPDEST POP PUSH2 0x1BD PUSH2 0x9BD JUMP JUMPDEST CALLVALUE DUP1 ISZERO PUSH2 0x357 JUMPI PUSH1 0x0 DUP1 REVERT JUMPDEST POP PUSH2 0x22C PUSH2 0x366 CALLDATASIZE PUSH1 0x4 PUSH2 0x1789 JUMP JUMPDEST PUSH2 0x9CC JUMP JUMPDEST CALLVALUE DUP1 ISZERO PUSH2 0x377 JUMPI PUSH1 0x0 DUP1 REVERT JUMPDEST POP PUSH2 0x170 PUSH2 0x386 CALLDATASIZE PUSH1 0x4 PUSH2 0x174F JUMP JUMPDEST PUSH2 0xA36 JUMP JUMPDEST CALLVALUE DUP1 ISZERO PUSH2 0x397 JUMPI PUSH1 0x0 DUP1 REVERT JUMPDEST POP PUSH2 0x170 PUSH2 0x3A6 CALLDATASIZE PUSH1 0x4 PUSH2 0x16D6 JUMP JUMPDEST PUSH2 0xB04 JUMP JUMPDEST CALLVALUE DUP1 ISZERO PUSH2 0x3B7 JUMPI PUSH1 0x0 DUP1 REVERT JUMPDEST POP PUSH2 0x1BD PUSH2 0x3C6 CALLDATASIZE PUSH1 0x4 PUSH2 0x18D1 JUMP JUMPDEST PUSH2 0xB43 JUMP JUMPDEST CALLVALUE DUP1 ISZERO PUSH2 0x3D7 JUMPI PUSH1 0x0 DUP1 REVERT JUMPDEST POP PUSH2 0x22C PUSH2 0x3E6 CALLDATASIZE PUSH1 0x4 PUSH2 0x188E JUMP JUMPDEST PUSH2 0xC09 JUMP JUMPDEST CALLVALUE DUP1 ISZERO PUSH2 0x3F7 JUMPI PUSH1 0x0 DUP1 REVERT JUMPDEST POP PUSH2 0x192 PUSH2 0x406 CALLDATASIZE PUSH1 0x4 PUSH2 0x1669 JUMP JUMPDEST PUSH2 0xC49 JUMP JUMPDEST CALLVALUE DUP1 ISZERO PUSH2 0x417 JUMPI PUSH1 0x0 DUP1 REVERT JUMPDEST POP PUSH2 0x170 PUSH2 0x426 CALLDATASIZE PUSH1 0x4 PUSH2 0x164F JUMP JUMPDEST PUSH2 0xC77 JUMP JUMPDEST CALLVALUE DUP1 ISZERO PUSH2 0x437 JUMPI PUSH1 0x0 DUP1 REVERT JUMPDEST POP PUSH2 0x170 PUSH2 0x446 CALLDATASIZE PUSH1 0x4 PUSH2 0x18D1 JUMP JUMPDEST PUSH2 0xCE8 JUMP JUMPDEST PUSH1 0x0 DUP2 DUP2 MSTORE PUSH1 0xE PUSH1 0x20 MSTORE PUSH1 0x40 DUP2 KECCAK256 DUP1 SLOAD PUSH1 0x1 SWAP3 SWAP1 PUSH2 0x46A SWAP1 DUP5 SWAP1 PUSH2 0x1F14 JUMP JUMPDEST SWAP1 SWAP2 SSTORE POP POP PUSH1 0x40 MLOAD PUSH32 0xF27464EDC066DD688F4EB358358A61A7AA6BB29BAE87378C38005B2B78A0D9CF SWAP1 PUSH2 0x49F SWAP1 CALLER SWAP1 PUSH2 0x1931 JUMP JUMPDEST PUSH1 0x40 MLOAD DUP1 SWAP2 SUB SWAP1 LOG1 POP JUMP JUMPDEST PUSH1 0x0 PUSH2 0x4B5 DUP3 PUSH2 0xD07 JUMP JUMPDEST SWAP1 POP JUMPDEST SWAP2 SWAP1 POP JUMP JUMPDEST PUSH1 0x60 PUSH1 0x0 DUP1 SLOAD PUSH2 0x4CC SWAP1 PUSH2 0x200F JUMP JUMPDEST DUP1 PUSH1 0x1F ADD PUSH1 0x20 DUP1 SWAP2 DIV MUL PUSH1 0x20 ADD PUSH1 0x40 MLOAD SWAP1 DUP2 ADD PUSH1 0x40 MSTORE DUP1 SWAP3 SWAP2 SWAP1 DUP2 DUP2 MSTORE PUSH1 0x20 ADD DUP3 DUP1 SLOAD PUSH2 0x4F8 SWAP1 PUSH2 0x200F JUMP JUMPDEST DUP1 ISZERO PUSH2 0x545 JUMPI DUP1 PUSH1 0x1F LT PUSH2 0x51A JUMPI PUSH2 0x100 DUP1 DUP4 SLOAD DIV MUL DUP4 MSTORE SWAP2 PUSH1 0x20 ADD SWAP2 PUSH2 0x545 JUMP JUMPDEST DUP3 ADD SWAP2 SWAP1 PUSH1 0x0 MSTORE PUSH1 0x20 PUSH1 0x0 KECCAK256 SWAP1 JUMPDEST DUP2 SLOAD DUP2 MSTORE SWAP1 PUSH1 0x1 ADD SWAP1 PUSH1 0x20 ADD DUP1 DUP4 GT PUSH2 0x528 JUMPI DUP3 SWAP1 SUB PUSH1 0x1F AND DUP3 ADD SWAP2 JUMPDEST POP POP POP POP POP SWAP1 POP SWAP1 JUMP JUMPDEST PUSH1 0x0 PUSH2 0x55A DUP3 PUSH2 0xD2C JUMP JUMPDEST PUSH2 0x57F JUMPI PUSH1 0x40 MLOAD PUSH3 0x461BCD PUSH1 0xE5 SHL DUP2 MSTORE PUSH1 0x4 ADD PUSH2 0x576 SWAP1 PUSH2 0x1CDD JUMP JUMPDEST PUSH1 0x40 MLOAD DUP1 SWAP2 SUB SWAP1 REVERT JUMPDEST POP PUSH1 0x0 SWAP1 DUP2 MSTORE PUSH1 0x4 PUSH1 0x20 MSTORE PUSH1 0x40 SWAP1 KECCAK256 SLOAD PUSH1 0x1 PUSH1 0x1 PUSH1 0xA0 SHL SUB AND SWAP1 JUMP JUMPDEST PUSH1 0x0 PUSH2 0x5A6 DUP3 PUSH2 0x8EA JUMP JUMPDEST SWAP1 POP DUP1 PUSH1 0x1 PUSH1 0x1 PUSH1 0xA0 SHL SUB AND DUP4 PUSH1 0x1 PUSH1 0x1 PUSH1 0xA0 SHL SUB AND EQ ISZERO PUSH2 0x5DA JUMPI PUSH1 0x40 MLOAD PUSH3 0x461BCD PUSH1 0xE5 SHL DUP2 MSTORE PUSH1 0x4 ADD PUSH2 0x576 SWAP1 PUSH2 0x1E2D JUMP JUMPDEST DUP1 PUSH1 0x1 PUSH1 0x1 PUSH1 0xA0 SHL SUB AND PUSH2 0x5EC PUSH2 0xD49 JUMP JUMPDEST PUSH1 0x1 PUSH1 0x1 PUSH1 0xA0 SHL SUB AND EQ DUP1 PUSH2 0x608 JUMPI POP PUSH2 0x608 DUP2 PUSH2 0x406 PUSH2 0xD49 JUMP JUMPDEST PUSH2 0x624 JUMPI PUSH1 0x40 MLOAD PUSH3 0x461BCD PUSH1 0xE5 SHL DUP2 MSTORE PUSH1 0x4 ADD PUSH2 0x576 SWAP1 PUSH2 0x1BB8 JUMP JUMPDEST PUSH2 0x62E DUP4 DUP4 PUSH2 0xD4D JUMP JUMPDEST POP POP POP JUMP JUMPDEST PUSH1 0x9 SLOAD SWAP1 JUMP JUMPDEST PUSH2 0x64A PUSH2 0x644 PUSH2 0xD49 JUMP JUMPDEST DUP3 PUSH2 0xDBB JUMP JUMPDEST PUSH2 0x666 JUMPI PUSH1 0x40 MLOAD PUSH3 0x461BCD PUSH1 0xE5 SHL DUP2 MSTORE PUSH1 0x4 ADD PUSH2 0x576 SWAP1 PUSH2 0x1E6E JUMP JUMPDEST PUSH2 0x62E DUP4 DUP4 DUP4 PUSH2 0xE40 JUMP JUMPDEST PUSH1 0x0 PUSH2 0x67C DUP4 PUSH2 0x91F JUMP JUMPDEST DUP3 LT PUSH2 0x69A JUMPI PUSH1 0x40 MLOAD PUSH3 0x461BCD PUSH1 0xE5 SHL DUP2 MSTORE PUSH1 0x4 ADD PUSH2 0x576 SWAP1 PUSH2 0x19A0 JUMP JUMPDEST POP PUSH1 0x1 PUSH1 0x1 PUSH1 0xA0 SHL SUB SWAP2 SWAP1 SWAP2 AND PUSH1 0x0 SWAP1 DUP2 MSTORE PUSH1 0x7 PUSH1 0x20 SWAP1 DUP2 MSTORE PUSH1 0x40 DUP1 DUP4 KECCAK256 SWAP4 DUP4 MSTORE SWAP3 SWAP1 MSTORE KECCAK256 SLOAD SWAP1 JUMP JUMPDEST PUSH2 0x62E DUP4 DUP4 DUP4 PUSH1 0x40 MLOAD DUP1 PUSH1 0x20 ADD PUSH1 0x40 MSTORE DUP1 PUSH1 0x0 DUP2 MSTORE POP PUSH2 0xB04 JUMP JUMPDEST PUSH1 0x0 CALLVALUE GT PUSH2 0x6FE JUMPI PUSH1 0x40 MLOAD PUSH3 0x461BCD PUSH1 0xE5 SHL DUP2 MSTORE PUSH1 0x4 ADD PUSH2 0x576 SWAP1 PUSH2 0x1B81 JUMP JUMPDEST PUSH1 0x0 PUSH1 0xD DUP3 PUSH1 0x40 MLOAD PUSH2 0x710 SWAP2 SWAP1 PUSH2 0x1915 JUMP JUMPDEST SWAP1 DUP2 MSTORE PUSH1 0x40 DUP1 MLOAD SWAP2 DUP3 SWAP1 SUB PUSH1 0x20 SWAP1 DUP2 ADD DUP4 KECCAK256 DUP1 SLOAD DUP1 DUP4 MUL DUP6 ADD DUP4 ADD SWAP1 SWAP4 MSTORE DUP3 DUP5 MSTORE SWAP2 SWAP1 DUP4 ADD DUP3 DUP3 DUP1 ISZERO PUSH2 0x762 JUMPI PUSH1 0x20 MUL DUP3 ADD SWAP2 SWAP1 PUSH1 0x0 MSTORE PUSH1 0x20 PUSH1 0x0 KECCAK256 SWAP1 JUMPDEST DUP2 SLOAD DUP2 MSTORE PUSH1 0x20 ADD SWAP1 PUSH1 0x1 ADD SWAP1 DUP1 DUP4 GT PUSH2 0x74E JUMPI JUMPDEST POP POP POP POP POP SWAP1 POP PUSH1 0x0 DUP2 MLOAD GT PUSH2 0x78A JUMPI PUSH1 0x40 MLOAD PUSH3 0x461BCD PUSH1 0xE5 SHL DUP2 MSTORE PUSH1 0x4 ADD PUSH2 0x576 SWAP1 PUSH2 0x1DA7 JUMP JUMPDEST PUSH1 0x0 JUMPDEST DUP2 MLOAD DUP2 LT ISZERO PUSH2 0x853 JUMPI PUSH1 0x0 PUSH2 0x7C8 DUP4 DUP4 DUP2 MLOAD DUP2 LT PUSH2 0x7BB JUMPI PUSH4 0x4E487B71 PUSH1 0xE0 SHL PUSH1 0x0 MSTORE PUSH1 0x32 PUSH1 0x4 MSTORE PUSH1 0x24 PUSH1 0x0 REVERT JUMPDEST PUSH1 0x20 MUL PUSH1 0x20 ADD ADD MLOAD PUSH2 0x8EA JUMP JUMPDEST SWAP1 POP PUSH2 0x7FC DUP2 CALLER DUP6 DUP6 DUP2 MLOAD DUP2 LT PUSH2 0x7EF JUMPI PUSH4 0x4E487B71 PUSH1 0xE0 SHL PUSH1 0x0 MSTORE PUSH1 0x32 PUSH1 0x4 MSTORE PUSH1 0x24 PUSH1 0x0 REVERT JUMPDEST PUSH1 0x20 MUL PUSH1 0x20 ADD ADD MLOAD PUSH2 0xE40 JUMP JUMPDEST DUP1 PUSH1 0x1 PUSH1 0x1 PUSH1 0xA0 SHL SUB AND PUSH2 0x8FC DUP5 MLOAD CALLVALUE PUSH2 0x816 SWAP2 SWAP1 PUSH2 0x1F6D JUMP JUMPDEST PUSH1 0x40 MLOAD DUP2 ISZERO SWAP1 SWAP3 MUL SWAP2 PUSH1 0x0 DUP2 DUP2 DUP2 DUP6 DUP9 DUP9 CALL SWAP4 POP POP POP POP ISZERO DUP1 ISZERO PUSH2 0x83E JUMPI RETURNDATASIZE PUSH1 0x0 DUP1 RETURNDATACOPY RETURNDATASIZE PUSH1 0x0 REVERT JUMPDEST POP POP DUP1 DUP1 PUSH2 0x84B SWAP1 PUSH2 0x204A JUMP JUMPDEST SWAP2 POP POP PUSH2 0x78D JUMP JUMPDEST POP PUSH32 0x41FE112B7AD2237E7367A0813BB844E8D808D60474D19A239F2D438D55339612 CALLER PUSH1 0x40 MLOAD PUSH2 0x883 SWAP2 SWAP1 PUSH2 0x1931 JUMP JUMPDEST PUSH1 0x40 MLOAD DUP1 SWAP2 SUB SWAP1 LOG1 POP POP JUMP JUMPDEST PUSH1 0x0 PUSH2 0x899 PUSH2 0x633 JUMP JUMPDEST DUP3 LT PUSH2 0x8B7 JUMPI PUSH1 0x40 MLOAD PUSH3 0x461BCD PUSH1 0xE5 SHL DUP2 MSTORE PUSH1 0x4 ADD PUSH2 0x576 SWAP1 PUSH2 0x1EBF JUMP JUMPDEST PUSH1 0x9 DUP3 DUP2 SLOAD DUP2 LT PUSH2 0x8D8 JUMPI PUSH4 0x4E487B71 PUSH1 0xE0 SHL PUSH1 0x0 MSTORE PUSH1 0x32 PUSH1 0x4 MSTORE PUSH1 0x24 PUSH1 0x0 REVERT JUMPDEST SWAP1 PUSH1 0x0 MSTORE PUSH1 0x20 PUSH1 0x0 KECCAK256 ADD SLOAD SWAP1 POP SWAP2 SWAP1 POP JUMP JUMPDEST PUSH1 0x0 DUP2 DUP2 MSTORE PUSH1 0x2 PUSH1 0x20 MSTORE PUSH1 0x40 DUP2 KECCAK256 SLOAD PUSH1 0x1 PUSH1 0x1 PUSH1 0xA0 SHL SUB AND DUP1 PUSH2 0x4B5 JUMPI PUSH1 0x40 MLOAD PUSH3 0x461BCD PUSH1 0xE5 SHL DUP2 MSTORE PUSH1 0x4 ADD PUSH2 0x576 SWAP1 PUSH2 0x1C5F JUMP JUMPDEST PUSH1 0x0 PUSH1 0x1 PUSH1 0x1 PUSH1 0xA0 SHL SUB DUP3 AND PUSH2 0x947 JUMPI PUSH1 0x40 MLOAD PUSH3 0x461BCD PUSH1 0xE5 SHL DUP2 MSTORE PUSH1 0x4 ADD PUSH2 0x576 SWAP1 PUSH2 0x1C15 JUMP JUMPDEST POP PUSH1 0x1 PUSH1 0x1 PUSH1 0xA0 SHL SUB AND PUSH1 0x0 SWAP1 DUP2 MSTORE PUSH1 0x3 PUSH1 0x20 MSTORE PUSH1 0x40 SWAP1 KECCAK256 SLOAD SWAP1 JUMP JUMPDEST PUSH2 0x96B PUSH2 0xD49 JUMP JUMPDEST PUSH1 0x1 PUSH1 0x1 PUSH1 0xA0 SHL SUB AND PUSH2 0x97C PUSH2 0x9AE JUMP JUMPDEST PUSH1 0x1 PUSH1 0x1 PUSH1 0xA0 SHL SUB AND EQ PUSH2 0x9A2 JUMPI PUSH1 0x40 MLOAD PUSH3 0x461BCD PUSH1 0xE5 SHL DUP2 MSTORE PUSH1 0x4 ADD PUSH2 0x576 SWAP1 PUSH2 0x1D29 JUMP JUMPDEST PUSH2 0x9AC PUSH1 0x0 PUSH2 0xF6D JUMP JUMPDEST JUMP JUMPDEST PUSH1 0x6 SLOAD PUSH1 0x1 PUSH1 0x1 PUSH1 0xA0 SHL SUB AND SWAP1 JUMP JUMPDEST PUSH1 0x60 PUSH1 0x1 DUP1 SLOAD PUSH2 0x4CC SWAP1 PUSH2 0x200F JUMP JUMPDEST PUSH1 0x0 PUSH2 0x9D8 PUSH1 0xB PUSH2 0xFBF JUMP JUMPDEST PUSH1 0x0 PUSH2 0x9E4 PUSH1 0xB PUSH2 0xFC8 JUMP JUMPDEST SWAP1 POP PUSH2 0x9F0 DUP6 DUP3 PUSH2 0xFCC JUMP JUMPDEST PUSH2 0x9FA DUP2 DUP6 PUSH2 0x10AB JUMP JUMPDEST PUSH1 0xD DUP4 PUSH1 0x40 MLOAD PUSH2 0xA0A SWAP2 SWAP1 PUSH2 0x1915 JUMP JUMPDEST SWAP1 DUP2 MSTORE PUSH1 0x40 MLOAD PUSH1 0x20 SWAP2 DUP2 SWAP1 SUB DUP3 ADD SWAP1 KECCAK256 DUP1 SLOAD PUSH1 0x1 DUP2 ADD DUP3 SSTORE PUSH1 0x0 SWAP2 DUP3 MSTORE SWAP2 SWAP1 KECCAK256 ADD DUP2 SWAP1 SSTORE SWAP5 SWAP4 POP POP POP POP JUMP JUMPDEST PUSH2 0xA3E PUSH2 0xD49 JUMP JUMPDEST PUSH1 0x1 PUSH1 0x1 PUSH1 0xA0 SHL SUB AND DUP3 PUSH1 0x1 PUSH1 0x1 PUSH1 0xA0 SHL SUB AND EQ ISZERO PUSH2 0xA6F JUMPI PUSH1 0x40 MLOAD PUSH3 0x461BCD PUSH1 0xE5 SHL DUP2 MSTORE PUSH1 0x4 ADD PUSH2 0x576 SWAP1 PUSH2 0x1AFE JUMP JUMPDEST DUP1 PUSH1 0x5 PUSH1 0x0 PUSH2 0xA7C PUSH2 0xD49 JUMP JUMPDEST PUSH1 0x1 PUSH1 0x1 PUSH1 0xA0 SHL SUB SWAP1 DUP2 AND DUP3 MSTORE PUSH1 0x20 DUP1 DUP4 ADD SWAP4 SWAP1 SWAP4 MSTORE PUSH1 0x40 SWAP2 DUP3 ADD PUSH1 0x0 SWAP1 DUP2 KECCAK256 SWAP2 DUP8 AND DUP1 DUP3 MSTORE SWAP2 SWAP1 SWAP4 MSTORE SWAP2 KECCAK256 DUP1 SLOAD PUSH1 0xFF NOT AND SWAP3 ISZERO ISZERO SWAP3 SWAP1 SWAP3 OR SWAP1 SWAP2 SSTORE PUSH2 0xAC0 PUSH2 0xD49 JUMP JUMPDEST PUSH1 0x1 PUSH1 0x1 PUSH1 0xA0 SHL SUB AND PUSH32 0x17307EAB39AB6107E8899845AD3D59BD9653F200F220920489CA2B5937696C31 DUP4 PUSH1 0x40 MLOAD PUSH2 0xAF8 SWAP2 SWAP1 PUSH2 0x1982 JUMP JUMPDEST PUSH1 0x40 MLOAD DUP1 SWAP2 SUB SWAP1 LOG3 POP POP JUMP JUMPDEST PUSH2 0xB15 PUSH2 0xB0F PUSH2 0xD49 JUMP JUMPDEST DUP4 PUSH2 0xDBB JUMP JUMPDEST PUSH2 0xB31 JUMPI PUSH1 0x40 MLOAD PUSH3 0x461BCD PUSH1 0xE5 SHL DUP2 MSTORE PUSH1 0x4 ADD PUSH2 0x576 SWAP1 PUSH2 0x1E6E JUMP JUMPDEST PUSH2 0xB3D DUP5 DUP5 DUP5 DUP5 PUSH2 0x10CA JUMP JUMPDEST POP POP POP POP JUMP JUMPDEST PUSH1 0x60 PUSH2 0xB4E DUP3 PUSH2 0xD2C JUMP JUMPDEST PUSH2 0xB6A JUMPI PUSH1 0x40 MLOAD PUSH3 0x461BCD PUSH1 0xE5 SHL DUP2 MSTORE PUSH1 0x4 ADD PUSH2 0x576 SWAP1 PUSH2 0x1DDE JUMP JUMPDEST PUSH1 0x0 DUP3 DUP2 MSTORE PUSH1 0xC PUSH1 0x20 MSTORE PUSH1 0x40 DUP2 KECCAK256 DUP1 SLOAD PUSH2 0xB83 SWAP1 PUSH2 0x200F JUMP JUMPDEST DUP1 PUSH1 0x1F ADD PUSH1 0x20 DUP1 SWAP2 DIV MUL PUSH1 0x20 ADD PUSH1 0x40 MLOAD SWAP1 DUP2 ADD PUSH1 0x40 MSTORE DUP1 SWAP3 SWAP2 SWAP1 DUP2 DUP2 MSTORE PUSH1 0x20 ADD DUP3 DUP1 SLOAD PUSH2 0xBAF SWAP1 PUSH2 0x200F JUMP JUMPDEST DUP1 ISZERO PUSH2 0xBFC JUMPI DUP1 PUSH1 0x1F LT PUSH2 0xBD1 JUMPI PUSH2 0x100 DUP1 DUP4 SLOAD DIV MUL DUP4 MSTORE SWAP2 PUSH1 0x20 ADD SWAP2 PUSH2 0xBFC JUMP JUMPDEST DUP3 ADD SWAP2 SWAP1 PUSH1 0x0 MSTORE PUSH1 0x20 PUSH1 0x0 KECCAK256 SWAP1 JUMPDEST DUP2 SLOAD DUP2 MSTORE SWAP1 PUSH1 0x1 ADD SWAP1 PUSH1 0x20 ADD DUP1 DUP4 GT PUSH2 0xBDF JUMPI DUP3 SWAP1 SUB PUSH1 0x1F AND DUP3 ADD SWAP2 JUMPDEST POP SWAP4 SWAP8 SWAP7 POP POP POP POP POP POP POP JUMP JUMPDEST DUP2 MLOAD PUSH1 0x20 DUP2 DUP5 ADD DUP2 ADD DUP1 MLOAD PUSH1 0xD DUP3 MSTORE SWAP3 DUP3 ADD SWAP2 DUP6 ADD SWAP2 SWAP1 SWAP2 KECCAK256 SWAP2 SWAP1 MSTORE DUP1 SLOAD DUP3 SWAP1 DUP2 LT PUSH2 0xC34 JUMPI PUSH1 0x0 DUP1 REVERT JUMPDEST SWAP1 PUSH1 0x0 MSTORE PUSH1 0x20 PUSH1 0x0 KECCAK256 ADD PUSH1 0x0 SWAP2 POP SWAP2 POP POP SLOAD DUP2 JUMP JUMPDEST PUSH1 0x1 PUSH1 0x1 PUSH1 0xA0 SHL SUB SWAP2 DUP3 AND PUSH1 0x0 SWAP1 DUP2 MSTORE PUSH1 0x5 PUSH1 0x20 SWAP1 DUP2 MSTORE PUSH1 0x40 DUP1 DUP4 KECCAK256 SWAP4 SWAP1 SWAP5 AND DUP3 MSTORE SWAP2 SWAP1 SWAP2 MSTORE KECCAK256 SLOAD PUSH1 0xFF AND SWAP1 JUMP JUMPDEST PUSH2 0xC7F PUSH2 0xD49 JUMP JUMPDEST PUSH1 0x1 PUSH1 0x1 PUSH1 0xA0 SHL SUB AND PUSH2 0xC90 PUSH2 0x9AE JUMP JUMPDEST PUSH1 0x1 PUSH1 0x1 PUSH1 0xA0 SHL SUB AND EQ PUSH2 0xCB6 JUMPI PUSH1 0x40 MLOAD PUSH3 0x461BCD PUSH1 0xE5 SHL DUP2 MSTORE PUSH1 0x4 ADD PUSH2 0x576 SWAP1 PUSH2 0x1D29 JUMP JUMPDEST PUSH1 0x1 PUSH1 0x1 PUSH1 0xA0 SHL SUB DUP2 AND PUSH2 0xCDC JUMPI PUSH1 0x40 MLOAD PUSH3 0x461BCD PUSH1 0xE5 SHL DUP2 MSTORE PUSH1 0x4 ADD PUSH2 0x576 SWAP1 PUSH2 0x1A3D JUMP JUMPDEST PUSH2 0xCE5 DUP2 PUSH2 0xF6D JUMP JUMPDEST POP JUMP JUMPDEST PUSH1 0x0 DUP2 DUP2 MSTORE PUSH1 0xE PUSH1 0x20 MSTORE PUSH1 0x40 DUP2 KECCAK256 DUP1 SLOAD PUSH1 0x1 SWAP3 SWAP1 PUSH2 0x46A SWAP1 DUP5 SWAP1 PUSH2 0x1F8D JUMP JUMPDEST PUSH1 0x0 PUSH1 0x1 PUSH1 0x1 PUSH1 0xE0 SHL SUB NOT DUP3 AND PUSH4 0x780E9D63 PUSH1 0xE0 SHL EQ DUP1 PUSH2 0x4B5 JUMPI POP PUSH2 0x4B5 DUP3 PUSH2 0x10FD JUMP JUMPDEST PUSH1 0x0 SWAP1 DUP2 MSTORE PUSH1 0x2 PUSH1 0x20 MSTORE PUSH1 0x40 SWAP1 KECCAK256 SLOAD PUSH1 0x1 PUSH1 0x1 PUSH1 0xA0 SHL SUB AND ISZERO ISZERO SWAP1 JUMP JUMPDEST CALLER SWAP1 JUMP JUMPDEST PUSH1 0x0 DUP2 DUP2 MSTORE PUSH1 0x4 PUSH1 0x20 MSTORE PUSH1 0x40 SWAP1 KECCAK256 DUP1 SLOAD PUSH1 0x1 PUSH1 0x1 PUSH1 0xA0 SHL SUB NOT AND PUSH1 0x1 PUSH1 0x1 PUSH1 0xA0 SHL SUB DUP5 AND SWAP1 DUP2 OR SWAP1 SWAP2 SSTORE DUP2 SWAP1 PUSH2 0xD82 DUP3 PUSH2 0x8EA JUMP JUMPDEST PUSH1 0x1 PUSH1 0x1 PUSH1 0xA0 SHL SUB AND PUSH32 0x8C5BE1E5EBEC7D5BD14F71427D1E84F3DD0314C0F7B2291E5B200AC8C7C3B925 PUSH1 0x40 MLOAD PUSH1 0x40 MLOAD DUP1 SWAP2 SUB SWAP1 LOG4 POP POP JUMP JUMPDEST PUSH1 0x0 PUSH2 0xDC6 DUP3 PUSH2 0xD2C JUMP JUMPDEST PUSH2 0xDE2 JUMPI PUSH1 0x40 MLOAD PUSH3 0x461BCD PUSH1 0xE5 SHL DUP2 MSTORE PUSH1 0x4 ADD PUSH2 0x576 SWAP1 PUSH2 0x1B35 JUMP JUMPDEST PUSH1 0x0 PUSH2 0xDED DUP4 PUSH2 0x8EA JUMP JUMPDEST SWAP1 POP DUP1 PUSH1 0x1 PUSH1 0x1 PUSH1 0xA0 SHL SUB AND DUP5 PUSH1 0x1 PUSH1 0x1 PUSH1 0xA0 SHL SUB AND EQ DUP1 PUSH2 0xE28 JUMPI POP DUP4 PUSH1 0x1 PUSH1 0x1 PUSH1 0xA0 SHL SUB AND PUSH2 0xE1D DUP5 PUSH2 0x54F JUMP JUMPDEST PUSH1 0x1 PUSH1 0x1 PUSH1 0xA0 SHL SUB AND EQ JUMPDEST DUP1 PUSH2 0xE38 JUMPI POP PUSH2 0xE38 DUP2 DUP6 PUSH2 0xC49 JUMP JUMPDEST SWAP5 SWAP4 POP POP POP POP JUMP JUMPDEST DUP3 PUSH1 0x1 PUSH1 0x1 PUSH1 0xA0 SHL SUB AND PUSH2 0xE53 DUP3 PUSH2 0x8EA JUMP JUMPDEST PUSH1 0x1 PUSH1 0x1 PUSH1 0xA0 SHL SUB AND EQ PUSH2 0xE79 JUMPI PUSH1 0x40 MLOAD PUSH3 0x461BCD PUSH1 0xE5 SHL DUP2 MSTORE PUSH1 0x4 ADD PUSH2 0x576 SWAP1 PUSH2 0x1D5E JUMP JUMPDEST PUSH1 0x1 PUSH1 0x1 PUSH1 0xA0 SHL SUB DUP3 AND PUSH2 0xE9F JUMPI PUSH1 0x40 MLOAD PUSH3 0x461BCD PUSH1 0xE5 SHL DUP2 MSTORE PUSH1 0x4 ADD PUSH2 0x576 SWAP1 PUSH2 0x1ABA JUMP JUMPDEST PUSH2 0xEAA DUP4 DUP4 DUP4 PUSH2 0x113D JUMP JUMPDEST PUSH2 0xEB5 PUSH1 0x0 DUP3 PUSH2 0xD4D JUMP JUMPDEST PUSH1 0x1 PUSH1 0x1 PUSH1 0xA0 SHL SUB DUP4 AND PUSH1 0x0 SWAP1 DUP2 MSTORE PUSH1 0x3 PUSH1 0x20 MSTORE PUSH1 0x40 DUP2 KECCAK256 DUP1 SLOAD PUSH1 0x1 SWAP3 SWAP1 PUSH2 0xEDE SWAP1 DUP5 SWAP1 PUSH2 0x1FCC JUMP JUMPDEST SWAP1 SWAP2 SSTORE POP POP PUSH1 0x1 PUSH1 0x1 PUSH1 0xA0 SHL SUB DUP3 AND PUSH1 0x0 SWAP1 DUP2 MSTORE PUSH1 0x3 PUSH1 0x20 MSTORE PUSH1 0x40 DUP2 KECCAK256 DUP1 SLOAD PUSH1 0x1 SWAP3 SWAP1 PUSH2 0xF0C SWAP1 DUP5 SWAP1 PUSH2 0x1F55 JUMP JUMPDEST SWAP1 SWAP2 SSTORE POP POP PUSH1 0x0 DUP2 DUP2 MSTORE PUSH1 0x2 PUSH1 0x20 MSTORE PUSH1 0x40 DUP1 DUP3 KECCAK256 DUP1 SLOAD PUSH1 0x1 PUSH1 0x1 PUSH1 0xA0 SHL SUB NOT AND PUSH1 0x1 PUSH1 0x1 PUSH1 0xA0 SHL SUB DUP7 DUP2 AND SWAP2 DUP3 OR SWAP1 SWAP3 SSTORE SWAP2 MLOAD DUP5 SWAP4 SWAP2 DUP8 AND SWAP2 PUSH32 0xDDF252AD1BE2C89B69C2B068FC378DAA952BA7F163C4A11628F55A4DF523B3EF SWAP2 LOG4 POP POP POP JUMP JUMPDEST PUSH1 0x6 DUP1 SLOAD PUSH1 0x1 PUSH1 0x1 PUSH1 0xA0 SHL SUB DUP4 DUP2 AND PUSH1 0x1 PUSH1 0x1 PUSH1 0xA0 SHL SUB NOT DUP4 AND DUP2 OR SWAP1 SWAP4 SSTORE PUSH1 0x40 MLOAD SWAP2 AND SWAP2 SWAP1 DUP3 SWAP1 PUSH32 0x8BE0079C531659141344CD1FD0A4F28419497F9722A3DAAFE3B4186F6B6457E0 SWAP1 PUSH1 0x0 SWAP1 LOG3 POP POP JUMP JUMPDEST DUP1 SLOAD PUSH1 0x1 ADD SWAP1 SSTORE JUMP JUMPDEST SLOAD SWAP1 JUMP JUMPDEST PUSH1 0x1 PUSH1 0x1 PUSH1 0xA0 SHL SUB DUP3 AND PUSH2 0xFF2 JUMPI PUSH1 0x40 MLOAD PUSH3 0x461BCD PUSH1 0xE5 SHL DUP2 MSTORE PUSH1 0x4 ADD PUSH2 0x576 SWAP1 PUSH2 0x1CA8 JUMP JUMPDEST PUSH2 0xFFB DUP2 PUSH2 0xD2C JUMP JUMPDEST ISZERO PUSH2 0x1018 JUMPI PUSH1 0x40 MLOAD PUSH3 0x461BCD PUSH1 0xE5 SHL DUP2 MSTORE PUSH1 0x4 ADD PUSH2 0x576 SWAP1 PUSH2 0x1A83 JUMP JUMPDEST PUSH2 0x1024 PUSH1 0x0 DUP4 DUP4 PUSH2 0x113D JUMP JUMPDEST PUSH1 0x1 PUSH1 0x1 PUSH1 0xA0 SHL SUB DUP3 AND PUSH1 0x0 SWAP1 DUP2 MSTORE PUSH1 0x3 PUSH1 0x20 MSTORE PUSH1 0x40 DUP2 KECCAK256 DUP1 SLOAD PUSH1 0x1 SWAP3 SWAP1 PUSH2 0x104D SWAP1 DUP5 SWAP1 PUSH2 0x1F55 JUMP JUMPDEST SWAP1 SWAP2 SSTORE POP POP PUSH1 0x0 DUP2 DUP2 MSTORE PUSH1 0x2 PUSH1 0x20 MSTORE PUSH1 0x40 DUP1 DUP3 KECCAK256 DUP1 SLOAD PUSH1 0x1 PUSH1 0x1 PUSH1 0xA0 SHL SUB NOT AND PUSH1 0x1 PUSH1 0x1 PUSH1 0xA0 SHL SUB DUP7 AND SWAP1 DUP2 OR SWAP1 SWAP2 SSTORE SWAP1 MLOAD DUP4 SWAP3 SWAP1 PUSH32 0xDDF252AD1BE2C89B69C2B068FC378DAA952BA7F163C4A11628F55A4DF523B3EF SWAP1 DUP3 SWAP1 LOG4 POP POP JUMP JUMPDEST PUSH1 0x0 DUP3 DUP2 MSTORE PUSH1 0xC PUSH1 0x20 SWAP1 DUP2 MSTORE PUSH1 0x40 SWAP1 SWAP2 KECCAK256 DUP3 MLOAD PUSH2 0x62E SWAP3 DUP5 ADD SWAP1 PUSH2 0x1509 JUMP JUMPDEST PUSH2 0x10D5 DUP5 DUP5 DUP5 PUSH2 0xE40 JUMP JUMPDEST PUSH2 0x10E1 DUP5 DUP5 DUP5 DUP5 PUSH2 0x1148 JUMP JUMPDEST PUSH2 0xB3D JUMPI PUSH1 0x40 MLOAD PUSH3 0x461BCD PUSH1 0xE5 SHL DUP2 MSTORE PUSH1 0x4 ADD PUSH2 0x576 SWAP1 PUSH2 0x19EB JUMP JUMPDEST PUSH1 0x0 PUSH1 0x1 PUSH1 0x1 PUSH1 0xE0 SHL SUB NOT DUP3 AND PUSH4 0x80AC58CD PUSH1 0xE0 SHL EQ DUP1 PUSH2 0x112E JUMPI POP PUSH1 0x1 PUSH1 0x1 PUSH1 0xE0 SHL SUB NOT DUP3 AND PUSH4 0x5B5E139F PUSH1 0xE0 SHL EQ JUMPDEST DUP1 PUSH2 0x4B5 JUMPI POP PUSH2 0x4B5 DUP3 PUSH2 0x1263 JUMP JUMPDEST PUSH2 0x62E DUP4 DUP4 DUP4 PUSH2 0x127C JUMP JUMPDEST PUSH1 0x0 PUSH2 0x115C DUP5 PUSH1 0x1 PUSH1 0x1 PUSH1 0xA0 SHL SUB AND PUSH2 0x1305 JUMP JUMPDEST ISZERO PUSH2 0x1258 JUMPI DUP4 PUSH1 0x1 PUSH1 0x1 PUSH1 0xA0 SHL SUB AND PUSH4 0x150B7A02 PUSH2 0x1178 PUSH2 0xD49 JUMP JUMPDEST DUP8 DUP7 DUP7 PUSH1 0x40 MLOAD DUP6 PUSH4 0xFFFFFFFF AND PUSH1 0xE0 SHL DUP2 MSTORE PUSH1 0x4 ADD PUSH2 0x119A SWAP5 SWAP4 SWAP3 SWAP2 SWAP1 PUSH2 0x1945 JUMP JUMPDEST PUSH1 0x20 PUSH1 0x40 MLOAD DUP1 DUP4 SUB DUP2 PUSH1 0x0 DUP8 DUP1 EXTCODESIZE ISZERO DUP1 ISZERO PUSH2 0x11B4 JUMPI PUSH1 0x0 DUP1 REVERT JUMPDEST POP GAS CALL SWAP3 POP POP POP DUP1 ISZERO PUSH2 0x11E4 JUMPI POP PUSH1 0x40 DUP1 MLOAD PUSH1 0x1F RETURNDATASIZE SWAP1 DUP2 ADD PUSH1 0x1F NOT AND DUP3 ADD SWAP1 SWAP3 MSTORE PUSH2 0x11E1 SWAP2 DUP2 ADD SWAP1 PUSH2 0x183F JUMP JUMPDEST PUSH1 0x1 JUMPDEST PUSH2 0x123E JUMPI RETURNDATASIZE DUP1 DUP1 ISZERO PUSH2 0x1212 JUMPI PUSH1 0x40 MLOAD SWAP2 POP PUSH1 0x1F NOT PUSH1 0x3F RETURNDATASIZE ADD AND DUP3 ADD PUSH1 0x40 MSTORE RETURNDATASIZE DUP3 MSTORE RETURNDATASIZE PUSH1 0x0 PUSH1 0x20 DUP5 ADD RETURNDATACOPY PUSH2 0x1217 JUMP JUMPDEST PUSH1 0x60 SWAP2 POP JUMPDEST POP DUP1 MLOAD PUSH2 0x1236 JUMPI PUSH1 0x40 MLOAD PUSH3 0x461BCD PUSH1 0xE5 SHL DUP2 MSTORE PUSH1 0x4 ADD PUSH2 0x576 SWAP1 PUSH2 0x19EB JUMP JUMPDEST DUP1 MLOAD DUP2 PUSH1 0x20 ADD REVERT JUMPDEST PUSH1 0x1 PUSH1 0x1 PUSH1 0xE0 SHL SUB NOT AND PUSH4 0xA85BD01 PUSH1 0xE1 SHL EQ SWAP1 POP PUSH2 0xE38 JUMP JUMPDEST POP PUSH1 0x1 SWAP5 SWAP4 POP POP POP POP JUMP JUMPDEST PUSH1 0x1 PUSH1 0x1 PUSH1 0xE0 SHL SUB NOT DUP2 AND PUSH4 0x1FFC9A7 PUSH1 0xE0 SHL EQ SWAP2 SWAP1 POP JUMP JUMPDEST PUSH2 0x1287 DUP4 DUP4 DUP4 PUSH2 0x62E JUMP JUMPDEST PUSH1 0x1 PUSH1 0x1 PUSH1 0xA0 SHL SUB DUP4 AND PUSH2 0x12A3 JUMPI PUSH2 0x129E DUP2 PUSH2 0x130B JUMP JUMPDEST PUSH2 0x12C6 JUMP JUMPDEST DUP2 PUSH1 0x1 PUSH1 0x1 PUSH1 0xA0 SHL SUB AND DUP4 PUSH1 0x1 PUSH1 0x1 PUSH1 0xA0 SHL SUB AND EQ PUSH2 0x12C6 JUMPI PUSH2 0x12C6 DUP4 DUP3 PUSH2 0x134F JUMP JUMPDEST PUSH1 0x1 PUSH1 0x1 PUSH1 0xA0 SHL SUB DUP3 AND PUSH2 0x12E2 JUMPI PUSH2 0x12DD DUP2 PUSH2 0x13EC JUMP JUMPDEST PUSH2 0x62E JUMP JUMPDEST DUP3 PUSH1 0x1 PUSH1 0x1 PUSH1 0xA0 SHL SUB AND DUP3 PUSH1 0x1 PUSH1 0x1 PUSH1 0xA0 SHL SUB AND EQ PUSH2 0x62E JUMPI PUSH2 0x62E DUP3 DUP3 PUSH2 0x14C5 JUMP JUMPDEST EXTCODESIZE ISZERO ISZERO SWAP1 JUMP JUMPDEST PUSH1 0x9 DUP1 SLOAD PUSH1 0x0 DUP4 DUP2 MSTORE PUSH1 0xA PUSH1 0x20 MSTORE PUSH1 0x40 DUP2 KECCAK256 DUP3 SWAP1 SSTORE PUSH1 0x1 DUP3 ADD DUP4 SSTORE SWAP2 SWAP1 SWAP2 MSTORE PUSH32 0x6E1540171B6C0C960B71A7020D9F60077F6AF931A8BBF590DA0223DACF75C7AF ADD SSTORE JUMP JUMPDEST PUSH1 0x0 PUSH1 0x1 PUSH2 0x135C DUP5 PUSH2 0x91F JUMP JUMPDEST PUSH2 0x1366 SWAP2 SWAP1 PUSH2 0x1FCC JUMP JUMPDEST PUSH1 0x0 DUP4 DUP2 MSTORE PUSH1 0x8 PUSH1 0x20 MSTORE PUSH1 0x40 SWAP1 KECCAK256 SLOAD SWAP1 SWAP2 POP DUP1 DUP3 EQ PUSH2 0x13B9 JUMPI PUSH1 0x1 PUSH1 0x1 PUSH1 0xA0 SHL SUB DUP5 AND PUSH1 0x0 SWAP1 DUP2 MSTORE PUSH1 0x7 PUSH1 0x20 SWAP1 DUP2 MSTORE PUSH1 0x40 DUP1 DUP4 KECCAK256 DUP6 DUP5 MSTORE DUP3 MSTORE DUP1 DUP4 KECCAK256 SLOAD DUP5 DUP5 MSTORE DUP2 DUP5 KECCAK256 DUP2 SWAP1 SSTORE DUP4 MSTORE PUSH1 0x8 SWAP1 SWAP2 MSTORE SWAP1 KECCAK256 DUP2 SWAP1 SSTORE JUMPDEST POP PUSH1 0x0 SWAP2 DUP3 MSTORE PUSH1 0x8 PUSH1 0x20 SWAP1 DUP2 MSTORE PUSH1 0x40 DUP1 DUP5 KECCAK256 DUP5 SWAP1 SSTORE PUSH1 0x1 PUSH1 0x1 PUSH1 0xA0 SHL SUB SWAP1 SWAP5 AND DUP4 MSTORE PUSH1 0x7 DUP2 MSTORE DUP4 DUP4 KECCAK256 SWAP2 DUP4 MSTORE MSTORE SWAP1 DUP2 KECCAK256 SSTORE JUMP JUMPDEST PUSH1 0x9 SLOAD PUSH1 0x0 SWAP1 PUSH2 0x13FE SWAP1 PUSH1 0x1 SWAP1 PUSH2 0x1FCC JUMP JUMPDEST PUSH1 0x0 DUP4 DUP2 MSTORE PUSH1 0xA PUSH1 0x20 MSTORE PUSH1 0x40 DUP2 KECCAK256 SLOAD PUSH1 0x9 DUP1 SLOAD SWAP4 SWAP5 POP SWAP1 SWAP3 DUP5 SWAP1 DUP2 LT PUSH2 0x1434 JUMPI PUSH4 0x4E487B71 PUSH1 0xE0 SHL PUSH1 0x0 MSTORE PUSH1 0x32 PUSH1 0x4 MSTORE PUSH1 0x24 PUSH1 0x0 REVERT JUMPDEST SWAP1 PUSH1 0x0 MSTORE PUSH1 0x20 PUSH1 0x0 KECCAK256 ADD SLOAD SWAP1 POP DUP1 PUSH1 0x9 DUP4 DUP2 SLOAD DUP2 LT PUSH2 0x1463 JUMPI PUSH4 0x4E487B71 PUSH1 0xE0 SHL PUSH1 0x0 MSTORE PUSH1 0x32 PUSH1 0x4 MSTORE PUSH1 0x24 PUSH1 0x0 REVERT JUMPDEST PUSH1 0x0 SWAP2 DUP3 MSTORE PUSH1 0x20 DUP1 DUP4 KECCAK256 SWAP1 SWAP2 ADD SWAP3 SWAP1 SWAP3 SSTORE DUP3 DUP2 MSTORE PUSH1 0xA SWAP1 SWAP2 MSTORE PUSH1 0x40 DUP1 DUP3 KECCAK256 DUP5 SWAP1 SSTORE DUP6 DUP3 MSTORE DUP2 KECCAK256 SSTORE PUSH1 0x9 DUP1 SLOAD DUP1 PUSH2 0x14A9 JUMPI PUSH4 0x4E487B71 PUSH1 0xE0 SHL PUSH1 0x0 MSTORE PUSH1 0x31 PUSH1 0x4 MSTORE PUSH1 0x24 PUSH1 0x0 REVERT JUMPDEST PUSH1 0x1 SWAP1 SUB DUP2 DUP2 SWAP1 PUSH1 0x0 MSTORE PUSH1 0x20 PUSH1 0x0 KECCAK256 ADD PUSH1 0x0 SWAP1 SSTORE SWAP1 SSTORE POP POP POP POP JUMP JUMPDEST PUSH1 0x0 PUSH2 0x14D0 DUP4 PUSH2 0x91F JUMP JUMPDEST PUSH1 0x1 PUSH1 0x1 PUSH1 0xA0 SHL SUB SWAP1 SWAP4 AND PUSH1 0x0 SWAP1 DUP2 MSTORE PUSH1 0x7 PUSH1 0x20 SWAP1 DUP2 MSTORE PUSH1 0x40 DUP1 DUP4 KECCAK256 DUP7 DUP5 MSTORE DUP3 MSTORE DUP1 DUP4 KECCAK256 DUP6 SWAP1 SSTORE SWAP4 DUP3 MSTORE PUSH1 0x8 SWAP1 MSTORE SWAP2 SWAP1 SWAP2 KECCAK256 SWAP2 SWAP1 SWAP2 SSTORE POP JUMP JUMPDEST DUP3 DUP1 SLOAD PUSH2 0x1515 SWAP1 PUSH2 0x200F JUMP JUMPDEST SWAP1 PUSH1 0x0 MSTORE PUSH1 0x20 PUSH1 0x0 KECCAK256 SWAP1 PUSH1 0x1F ADD PUSH1 0x20 SWAP1 DIV DUP2 ADD SWAP3 DUP3 PUSH2 0x1537 JUMPI PUSH1 0x0 DUP6 SSTORE PUSH2 0x157D JUMP JUMPDEST DUP3 PUSH1 0x1F LT PUSH2 0x1550 JUMPI DUP1 MLOAD PUSH1 0xFF NOT AND DUP4 DUP1 ADD OR DUP6 SSTORE PUSH2 0x157D JUMP JUMPDEST DUP3 DUP1 ADD PUSH1 0x1 ADD DUP6 SSTORE DUP3 ISZERO PUSH2 0x157D JUMPI SWAP2 DUP3 ADD JUMPDEST DUP3 DUP2 GT ISZERO PUSH2 0x157D JUMPI DUP3 MLOAD DUP3 SSTORE SWAP2 PUSH1 0x20 ADD SWAP2 SWAP1 PUSH1 0x1 ADD SWAP1 PUSH2 0x1562 JUMP JUMPDEST POP PUSH2 0x1589 SWAP3 SWAP2 POP PUSH2 0x158D JUMP JUMPDEST POP SWAP1 JUMP JUMPDEST JUMPDEST DUP1 DUP3 GT ISZERO PUSH2 0x1589 JUMPI PUSH1 0x0 DUP2 SSTORE PUSH1 0x1 ADD PUSH2 0x158E JUMP JUMPDEST PUSH1 0x0 PUSH8 0xFFFFFFFFFFFFFFFF DUP1 DUP5 GT ISZERO PUSH2 0x15BD JUMPI PUSH2 0x15BD PUSH2 0x207B JUMP JUMPDEST PUSH1 0x40 MLOAD PUSH1 0x1F DUP6 ADD PUSH1 0x1F NOT AND DUP2 ADD PUSH1 0x20 ADD DUP3 DUP2 GT DUP3 DUP3 LT OR ISZERO PUSH2 0x15E1 JUMPI PUSH2 0x15E1 PUSH2 0x207B JUMP JUMPDEST PUSH1 0x40 MSTORE DUP5 DUP2 MSTORE SWAP2 POP DUP2 DUP4 DUP6 ADD DUP7 LT ISZERO PUSH2 0x15F9 JUMPI PUSH1 0x0 DUP1 REVERT JUMPDEST DUP5 DUP5 PUSH1 0x20 DUP4 ADD CALLDATACOPY PUSH1 0x0 PUSH1 0x20 DUP7 DUP4 ADD ADD MSTORE POP POP SWAP4 SWAP3 POP POP POP JUMP JUMPDEST DUP1 CALLDATALOAD PUSH1 0x1 PUSH1 0x1 PUSH1 0xA0 SHL SUB DUP2 AND DUP2 EQ PUSH2 0x4B8 JUMPI PUSH1 0x0 DUP1 REVERT JUMPDEST PUSH1 0x0 DUP3 PUSH1 0x1F DUP4 ADD SLT PUSH2 0x1639 JUMPI DUP1 DUP2 REVERT JUMPDEST PUSH2 0x1648 DUP4 DUP4 CALLDATALOAD PUSH1 0x20 DUP6 ADD PUSH2 0x15A2 JUMP JUMPDEST SWAP4 SWAP3 POP POP POP JUMP JUMPDEST PUSH1 0x0 PUSH1 0x20 DUP3 DUP5 SUB SLT ISZERO PUSH2 0x1660 JUMPI DUP1 DUP2 REVERT JUMPDEST PUSH2 0x1648 DUP3 PUSH2 0x1612 JUMP JUMPDEST PUSH1 0x0 DUP1 PUSH1 0x40 DUP4 DUP6 SUB SLT ISZERO PUSH2 0x167B JUMPI DUP1 DUP2 REVERT JUMPDEST PUSH2 0x1684 DUP4 PUSH2 0x1612 JUMP JUMPDEST SWAP2 POP PUSH2 0x1692 PUSH1 0x20 DUP5 ADD PUSH2 0x1612 JUMP JUMPDEST SWAP1 POP SWAP3 POP SWAP3 SWAP1 POP JUMP JUMPDEST PUSH1 0x0 DUP1 PUSH1 0x0 PUSH1 0x60 DUP5 DUP7 SUB SLT ISZERO PUSH2 0x16AF JUMPI DUP1 DUP2 REVERT JUMPDEST PUSH2 0x16B8 DUP5 PUSH2 0x1612 JUMP JUMPDEST SWAP3 POP PUSH2 0x16C6 PUSH1 0x20 DUP6 ADD PUSH2 0x1612 JUMP JUMPDEST SWAP2 POP PUSH1 0x40 DUP5 ADD CALLDATALOAD SWAP1 POP SWAP3 POP SWAP3 POP SWAP3 JUMP JUMPDEST PUSH1 0x0 DUP1 PUSH1 0x0 DUP1 PUSH1 0x80 DUP6 DUP8 SUB SLT ISZERO PUSH2 0x16EB JUMPI DUP1 DUP2 REVERT JUMPDEST PUSH2 0x16F4 DUP6 PUSH2 0x1612 JUMP JUMPDEST SWAP4 POP PUSH2 0x1702 PUSH1 0x20 DUP7 ADD PUSH2 0x1612 JUMP JUMPDEST SWAP3 POP PUSH1 0x40 DUP6 ADD CALLDATALOAD SWAP2 POP PUSH1 0x60 DUP6 ADD CALLDATALOAD PUSH8 0xFFFFFFFFFFFFFFFF DUP2 GT ISZERO PUSH2 0x1724 JUMPI DUP2 DUP3 REVERT JUMPDEST DUP6 ADD PUSH1 0x1F DUP2 ADD DUP8 SGT PUSH2 0x1734 JUMPI DUP2 DUP3 REVERT JUMPDEST PUSH2 0x1743 DUP8 DUP3 CALLDATALOAD PUSH1 0x20 DUP5 ADD PUSH2 0x15A2 JUMP JUMPDEST SWAP2 POP POP SWAP3 SWAP6 SWAP2 SWAP5 POP SWAP3 POP JUMP JUMPDEST PUSH1 0x0 DUP1 PUSH1 0x40 DUP4 DUP6 SUB SLT ISZERO PUSH2 0x1761 JUMPI DUP2 DUP3 REVERT JUMPDEST PUSH2 0x176A DUP4 PUSH2 0x1612 JUMP JUMPDEST SWAP2 POP PUSH1 0x20 DUP4 ADD CALLDATALOAD DUP1 ISZERO ISZERO DUP2 EQ PUSH2 0x177E JUMPI DUP2 DUP3 REVERT JUMPDEST DUP1 SWAP2 POP POP SWAP3 POP SWAP3 SWAP1 POP JUMP JUMPDEST PUSH1 0x0 DUP1 PUSH1 0x0 PUSH1 0x60 DUP5 DUP7 SUB SLT ISZERO PUSH2 0x179D JUMPI DUP3 DUP4 REVERT JUMPDEST PUSH2 0x17A6 DUP5 PUSH2 0x1612 JUMP JUMPDEST SWAP3 POP PUSH1 0x20 DUP5 ADD CALLDATALOAD PUSH8 0xFFFFFFFFFFFFFFFF DUP1 DUP3 GT ISZERO PUSH2 0x17C2 JUMPI DUP4 DUP5 REVERT JUMPDEST PUSH2 0x17CE DUP8 DUP4 DUP9 ADD PUSH2 0x1629 JUMP JUMPDEST SWAP4 POP PUSH1 0x40 DUP7 ADD CALLDATALOAD SWAP2 POP DUP1 DUP3 GT ISZERO PUSH2 0x17E3 JUMPI DUP3 DUP4 REVERT JUMPDEST POP PUSH2 0x17F0 DUP7 DUP3 DUP8 ADD PUSH2 0x1629 JUMP JUMPDEST SWAP2 POP POP SWAP3 POP SWAP3 POP SWAP3 JUMP JUMPDEST PUSH1 0x0 DUP1 PUSH1 0x40 DUP4 DUP6 SUB SLT ISZERO PUSH2 0x180C JUMPI DUP2 DUP3 REVERT JUMPDEST PUSH2 0x1815 DUP4 PUSH2 0x1612 JUMP JUMPDEST SWAP5 PUSH1 0x20 SWAP4 SWAP1 SWAP4 ADD CALLDATALOAD SWAP4 POP POP POP JUMP JUMPDEST PUSH1 0x0 PUSH1 0x20 DUP3 DUP5 SUB SLT ISZERO PUSH2 0x1834 JUMPI DUP1 DUP2 REVERT JUMPDEST DUP2 CALLDATALOAD PUSH2 0x1648 DUP2 PUSH2 0x2091 JUMP JUMPDEST PUSH1 0x0 PUSH1 0x20 DUP3 DUP5 SUB SLT ISZERO PUSH2 0x1850 JUMPI DUP1 DUP2 REVERT JUMPDEST DUP2 MLOAD PUSH2 0x1648 DUP2 PUSH2 0x2091 JUMP JUMPDEST PUSH1 0x0 PUSH1 0x20 DUP3 DUP5 SUB SLT ISZERO PUSH2 0x186C JUMPI DUP1 DUP2 REVERT JUMPDEST DUP2 CALLDATALOAD PUSH8 0xFFFFFFFFFFFFFFFF DUP2 GT ISZERO PUSH2 0x1882 JUMPI DUP2 DUP3 REVERT JUMPDEST PUSH2 0xE38 DUP5 DUP3 DUP6 ADD PUSH2 0x1629 JUMP JUMPDEST PUSH1 0x0 DUP1 PUSH1 0x40 DUP4 DUP6 SUB SLT ISZERO PUSH2 0x18A0 JUMPI DUP2 DUP3 REVERT JUMPDEST DUP3 CALLDATALOAD PUSH8 0xFFFFFFFFFFFFFFFF DUP2 GT ISZERO PUSH2 0x18B6 JUMPI DUP3 DUP4 REVERT JUMPDEST PUSH2 0x18C2 DUP6 DUP3 DUP7 ADD PUSH2 0x1629 JUMP JUMPDEST SWAP6 PUSH1 0x20 SWAP5 SWAP1 SWAP5 ADD CALLDATALOAD SWAP5 POP POP POP POP JUMP JUMPDEST PUSH1 0x0 PUSH1 0x20 DUP3 DUP5 SUB SLT ISZERO PUSH2 0x18E2 JUMPI DUP1 DUP2 REVERT JUMPDEST POP CALLDATALOAD SWAP2 SWAP1 POP JUMP JUMPDEST PUSH1 0x0 DUP2 MLOAD DUP1 DUP5 MSTORE PUSH2 0x1901 DUP2 PUSH1 0x20 DUP7 ADD PUSH1 0x20 DUP7 ADD PUSH2 0x1FE3 JUMP JUMPDEST PUSH1 0x1F ADD PUSH1 0x1F NOT AND SWAP3 SWAP1 SWAP3 ADD PUSH1 0x20 ADD SWAP3 SWAP2 POP POP JUMP JUMPDEST PUSH1 0x0 DUP3 MLOAD PUSH2 0x1927 DUP2 DUP5 PUSH1 0x20 DUP8 ADD PUSH2 0x1FE3 JUMP JUMPDEST SWAP2 SWAP1 SWAP2 ADD SWAP3 SWAP2 POP POP JUMP JUMPDEST PUSH1 0x1 PUSH1 0x1 PUSH1 0xA0 SHL SUB SWAP2 SWAP1 SWAP2 AND DUP2 MSTORE PUSH1 0x20 ADD SWAP1 JUMP JUMPDEST PUSH1 0x1 PUSH1 0x1 PUSH1 0xA0 SHL SUB DUP6 DUP2 AND DUP3 MSTORE DUP5 AND PUSH1 0x20 DUP3 ADD MSTORE PUSH1 0x40 DUP2 ADD DUP4 SWAP1 MSTORE PUSH1 0x80 PUSH1 0x60 DUP3 ADD DUP2 SWAP1 MSTORE PUSH1 0x0 SWAP1 PUSH2 0x1978 SWAP1 DUP4 ADD DUP5 PUSH2 0x18E9 JUMP JUMPDEST SWAP7 SWAP6 POP POP POP POP POP POP JUMP JUMPDEST SWAP1 ISZERO ISZERO DUP2 MSTORE PUSH1 0x20 ADD SWAP1 JUMP JUMPDEST PUSH1 0x0 PUSH1 0x20 DUP3 MSTORE PUSH2 0x1648 PUSH1 0x20 DUP4 ADD DUP5 PUSH2 0x18E9 JUMP JUMPDEST PUSH1 0x20 DUP1 DUP3 MSTORE PUSH1 0x2B SWAP1 DUP3 ADD MSTORE PUSH32 0x455243373231456E756D657261626C653A206F776E657220696E646578206F75 PUSH1 0x40 DUP3 ADD MSTORE PUSH11 0x74206F6620626F756E6473 PUSH1 0xA8 SHL PUSH1 0x60 DUP3 ADD MSTORE PUSH1 0x80 ADD SWAP1 JUMP JUMPDEST PUSH1 0x20 DUP1 DUP3 MSTORE PUSH1 0x32 SWAP1 DUP3 ADD MSTORE PUSH32 0x4552433732313A207472616E7366657220746F206E6F6E204552433732315265 PUSH1 0x40 DUP3 ADD MSTORE PUSH18 0x31B2B4BB32B91034B6B83632B6B2B73A32B9 PUSH1 0x71 SHL PUSH1 0x60 DUP3 ADD MSTORE PUSH1 0x80 ADD SWAP1 JUMP JUMPDEST PUSH1 0x20 DUP1 DUP3 MSTORE PUSH1 0x26 SWAP1 DUP3 ADD MSTORE PUSH32 0x4F776E61626C653A206E6577206F776E657220697320746865207A65726F2061 PUSH1 0x40 DUP3 ADD MSTORE PUSH6 0x646472657373 PUSH1 0xD0 SHL PUSH1 0x60 DUP3 ADD MSTORE PUSH1 0x80 ADD SWAP1 JUMP JUMPDEST PUSH1 0x20 DUP1 DUP3 MSTORE PUSH1 0x1C SWAP1 DUP3 ADD MSTORE PUSH32 0x4552433732313A20746F6B656E20616C7265616479206D696E74656400000000 PUSH1 0x40 DUP3 ADD MSTORE PUSH1 0x60 ADD SWAP1 JUMP JUMPDEST PUSH1 0x20 DUP1 DUP3 MSTORE PUSH1 0x24 SWAP1 DUP3 ADD MSTORE PUSH32 0x4552433732313A207472616E7366657220746F20746865207A65726F20616464 PUSH1 0x40 DUP3 ADD MSTORE PUSH4 0x72657373 PUSH1 0xE0 SHL PUSH1 0x60 DUP3 ADD MSTORE PUSH1 0x80 ADD SWAP1 JUMP JUMPDEST PUSH1 0x20 DUP1 DUP3 MSTORE PUSH1 0x19 SWAP1 DUP3 ADD MSTORE PUSH32 0x4552433732313A20617070726F766520746F2063616C6C657200000000000000 PUSH1 0x40 DUP3 ADD MSTORE PUSH1 0x60 ADD SWAP1 JUMP JUMPDEST PUSH1 0x20 DUP1 DUP3 MSTORE PUSH1 0x2C SWAP1 DUP3 ADD MSTORE PUSH32 0x4552433732313A206F70657261746F7220717565727920666F72206E6F6E6578 PUSH1 0x40 DUP3 ADD MSTORE PUSH12 0x34B9BA32B73A103A37B5B2B7 PUSH1 0xA1 SHL PUSH1 0x60 DUP3 ADD MSTORE PUSH1 0x80 ADD SWAP1 JUMP JUMPDEST PUSH1 0x20 DUP1 DUP3 MSTORE PUSH1 0x17 SWAP1 DUP3 ADD MSTORE PUSH32 0x506C656173652073656E6420736F6D6520746F6B656E73000000000000000000 PUSH1 0x40 DUP3 ADD MSTORE PUSH1 0x60 ADD SWAP1 JUMP JUMPDEST PUSH1 0x20 DUP1 DUP3 MSTORE PUSH1 0x38 SWAP1 DUP3 ADD MSTORE PUSH32 0x4552433732313A20617070726F76652063616C6C6572206973206E6F74206F77 PUSH1 0x40 DUP3 ADD MSTORE PUSH32 0x6E6572206E6F7220617070726F76656420666F7220616C6C0000000000000000 PUSH1 0x60 DUP3 ADD MSTORE PUSH1 0x80 ADD SWAP1 JUMP JUMPDEST PUSH1 0x20 DUP1 DUP3 MSTORE PUSH1 0x2A SWAP1 DUP3 ADD MSTORE PUSH32 0x4552433732313A2062616C616E636520717565727920666F7220746865207A65 PUSH1 0x40 DUP3 ADD MSTORE PUSH10 0x726F2061646472657373 PUSH1 0xB0 SHL PUSH1 0x60 DUP3 ADD MSTORE PUSH1 0x80 ADD SWAP1 JUMP JUMPDEST PUSH1 0x20 DUP1 DUP3 MSTORE PUSH1 0x29 SWAP1 DUP3 ADD MSTORE PUSH32 0x4552433732313A206F776E657220717565727920666F72206E6F6E6578697374 PUSH1 0x40 DUP3 ADD MSTORE PUSH9 0x32B73A103A37B5B2B7 PUSH1 0xB9 SHL PUSH1 0x60 DUP3 ADD MSTORE PUSH1 0x80 ADD SWAP1 JUMP JUMPDEST PUSH1 0x20 DUP1 DUP3 MSTORE DUP2 DUP2 ADD MSTORE PUSH32 0x4552433732313A206D696E7420746F20746865207A65726F2061646472657373 PUSH1 0x40 DUP3 ADD MSTORE PUSH1 0x60 ADD SWAP1 JUMP JUMPDEST PUSH1 0x20 DUP1 DUP3 MSTORE PUSH1 0x2C SWAP1 DUP3 ADD MSTORE PUSH32 0x4552433732313A20617070726F76656420717565727920666F72206E6F6E6578 PUSH1 0x40 DUP3 ADD MSTORE PUSH12 0x34B9BA32B73A103A37B5B2B7 PUSH1 0xA1 SHL PUSH1 0x60 DUP3 ADD MSTORE PUSH1 0x80 ADD SWAP1 JUMP JUMPDEST PUSH1 0x20 DUP1 DUP3 MSTORE DUP2 DUP2 ADD MSTORE PUSH32 0x4F776E61626C653A2063616C6C6572206973206E6F7420746865206F776E6572 PUSH1 0x40 DUP3 ADD MSTORE PUSH1 0x60 ADD SWAP1 JUMP JUMPDEST PUSH1 0x20 DUP1 DUP3 MSTORE PUSH1 0x29 SWAP1 DUP3 ADD MSTORE PUSH32 0x4552433732313A207472616E73666572206F6620746F6B656E20746861742069 PUSH1 0x40 DUP3 ADD MSTORE PUSH9 0x39903737BA1037BBB7 PUSH1 0xB9 SHL PUSH1 0x60 DUP3 ADD MSTORE PUSH1 0x80 ADD SWAP1 JUMP JUMPDEST PUSH1 0x20 DUP1 DUP3 MSTORE PUSH1 0x17 SWAP1 DUP3 ADD MSTORE PUSH32 0x546869732063616E76617320686173206E6F2074696C65000000000000000000 PUSH1 0x40 DUP3 ADD MSTORE PUSH1 0x60 ADD SWAP1 JUMP JUMPDEST PUSH1 0x20 DUP1 DUP3 MSTORE PUSH1 0x2F SWAP1 DUP3 ADD MSTORE PUSH32 0x4552433732314D657461646174613A2055524920717565727920666F72206E6F PUSH1 0x40 DUP3 ADD MSTORE PUSH15 0x3732BC34B9BA32B73A103A37B5B2B7 PUSH1 0x89 SHL PUSH1 0x60 DUP3 ADD MSTORE PUSH1 0x80 ADD SWAP1 JUMP JUMPDEST PUSH1 0x20 DUP1 DUP3 MSTORE PUSH1 0x21 SWAP1 DUP3 ADD MSTORE PUSH32 0x4552433732313A20617070726F76616C20746F2063757272656E74206F776E65 PUSH1 0x40 DUP3 ADD MSTORE PUSH1 0x39 PUSH1 0xF9 SHL PUSH1 0x60 DUP3 ADD MSTORE PUSH1 0x80 ADD SWAP1 JUMP JUMPDEST PUSH1 0x20 DUP1 DUP3 MSTORE PUSH1 0x31 SWAP1 DUP3 ADD MSTORE PUSH32 0x4552433732313A207472616E736665722063616C6C6572206973206E6F74206F PUSH1 0x40 DUP3 ADD MSTORE PUSH17 0x1DDB995C881B9BDC88185C1C1C9BDD9959 PUSH1 0x7A SHL PUSH1 0x60 DUP3 ADD MSTORE PUSH1 0x80 ADD SWAP1 JUMP JUMPDEST PUSH1 0x20 DUP1 DUP3 MSTORE PUSH1 0x2C SWAP1 DUP3 ADD MSTORE PUSH32 0x455243373231456E756D657261626C653A20676C6F62616C20696E646578206F PUSH1 0x40 DUP3 ADD MSTORE PUSH12 0x7574206F6620626F756E6473 PUSH1 0xA0 SHL PUSH1 0x60 DUP3 ADD MSTORE PUSH1 0x80 ADD SWAP1 JUMP JUMPDEST SWAP1 DUP2 MSTORE PUSH1 0x20 ADD SWAP1 JUMP JUMPDEST PUSH1 0x0 DUP1 DUP3 SLT DUP1 ISZERO PUSH1 0x1 PUSH1 0x1 PUSH1 0xFF SHL SUB DUP5 SWAP1 SUB DUP6 SGT AND ISZERO PUSH2 0x1F36 JUMPI PUSH2 0x1F36 PUSH2 0x2065 JUMP JUMPDEST PUSH1 0x1 PUSH1 0xFF SHL DUP4 SWAP1 SUB DUP5 SLT DUP2 AND ISZERO PUSH2 0x1F4F JUMPI PUSH2 0x1F4F PUSH2 0x2065 JUMP JUMPDEST POP POP ADD SWAP1 JUMP JUMPDEST PUSH1 0x0 DUP3 NOT DUP3 GT ISZERO PUSH2 0x1F68 JUMPI PUSH2 0x1F68 PUSH2 0x2065 JUMP JUMPDEST POP ADD SWAP1 JUMP JUMPDEST PUSH1 0x0 DUP3 PUSH2 0x1F88 JUMPI PUSH4 0x4E487B71 PUSH1 0xE0 SHL DUP2 MSTORE PUSH1 0x12 PUSH1 0x4 MSTORE PUSH1 0x24 DUP2 REVERT JUMPDEST POP DIV SWAP1 JUMP JUMPDEST PUSH1 0x0 DUP1 DUP4 SLT DUP1 ISZERO PUSH1 0x1 PUSH1 0xFF SHL DUP6 ADD DUP5 SLT AND ISZERO PUSH2 0x1FAB JUMPI PUSH2 0x1FAB PUSH2 0x2065 JUMP JUMPDEST PUSH1 0x1 PUSH1 0x1 PUSH1 0xFF SHL SUB DUP5 ADD DUP4 SGT DUP2 AND ISZERO PUSH2 0x1FC6 JUMPI PUSH2 0x1FC6 PUSH2 0x2065 JUMP JUMPDEST POP POP SUB SWAP1 JUMP JUMPDEST PUSH1 0x0 DUP3 DUP3 LT ISZERO PUSH2 0x1FDE JUMPI PUSH2 0x1FDE PUSH2 0x2065 JUMP JUMPDEST POP SUB SWAP1 JUMP JUMPDEST PUSH1 0x0 JUMPDEST DUP4 DUP2 LT ISZERO PUSH2 0x1FFE JUMPI DUP2 DUP2 ADD MLOAD DUP4 DUP3 ADD MSTORE PUSH1 0x20 ADD PUSH2 0x1FE6 JUMP JUMPDEST DUP4 DUP2 GT ISZERO PUSH2 0xB3D JUMPI POP POP PUSH1 0x0 SWAP2 ADD MSTORE JUMP JUMPDEST PUSH1 0x2 DUP2 DIV PUSH1 0x1 DUP3 AND DUP1 PUSH2 0x2023 JUMPI PUSH1 0x7F DUP3 AND SWAP2 POP JUMPDEST PUSH1 0x20 DUP3 LT DUP2 EQ ISZERO PUSH2 0x2044 JUMPI PUSH4 0x4E487B71 PUSH1 0xE0 SHL PUSH1 0x0 MSTORE PUSH1 0x22 PUSH1 0x4 MSTORE PUSH1 0x24 PUSH1 0x0 REVERT JUMPDEST POP SWAP2 SWAP1 POP JUMP JUMPDEST PUSH1 0x0 PUSH1 0x0 NOT DUP3 EQ ISZERO PUSH2 0x205E JUMPI PUSH2 0x205E PUSH2 0x2065 JUMP JUMPDEST POP PUSH1 0x1 ADD SWAP1 JUMP JUMPDEST PUSH4 0x4E487B71 PUSH1 0xE0 SHL PUSH1 0x0 MSTORE PUSH1 0x11 PUSH1 0x4 MSTORE PUSH1 0x24 PUSH1 0x0 REVERT JUMPDEST PUSH4 0x4E487B71 PUSH1 0xE0 SHL PUSH1 0x0 MSTORE PUSH1 0x41 PUSH1 0x4 MSTORE PUSH1 0x24 PUSH1 0x0 REVERT JUMPDEST PUSH1 0x1 PUSH1 0x1 PUSH1 0xE0 SHL SUB NOT DUP2 AND DUP2 EQ PUSH2 0xCE5 JUMPI PUSH1 0x0 DUP1 REVERT INVALID LOG2 PUSH5 0x6970667358 0x22 SLT KECCAK256 SUB 0x5E CHAINID SHL 0x21 0xC6 0xC6 PUSH31 0x45C97A6123145BA46BAC447BA7A68093E5BEB78A14253DE664736F6C634300 ADDMOD STOP STOP CALLER "
        },
        "methodIdentifiers": {
          "approve(address,uint256)": "095ea7b3",
          "balanceOf(address)": "70a08231",
          "buy(string)": "492cc769",
          "canvasIdToTileIds(string,uint256)": "cfcfcdb1",
          "downvote(uint256)": "f31fdad4",
          "getApproved(uint256)": "081812fc",
          "isApprovedForAll(address,address)": "e985e9c5",
          "mint(address,string,string)": "99071190",
          "name()": "06fdde03",
          "owner()": "8da5cb5b",
          "ownerOf(uint256)": "6352211e",
          "renounceOwnership()": "715018a6",
          "safeTransferFrom(address,address,uint256)": "42842e0e",
          "safeTransferFrom(address,address,uint256,bytes)": "b88d4fde",
          "setApprovalForAll(address,bool)": "a22cb465",
          "supportsInterface(bytes4)": "01ffc9a7",
          "symbol()": "95d89b41",
          "tokenByIndex(uint256)": "4f6ccce7",
          "tokenOfOwnerByIndex(address,uint256)": "2f745c59",
          "tokenURI(uint256)": "c87b56dd",
          "totalSupply()": "18160ddd",
          "transferFrom(address,address,uint256)": "23b872dd",
          "transferOwnership(address)": "f2fde38b",
          "upvote(uint256)": "01ddf070"
        }
      }
    }
  }
}