{
  "_format": "hh-sol-artifact-1",
  "contractName": "MyNFT",
  "sourceName": "contracts/NFT.sol",
  "abi": [
    {
      "inputs": [],
      "stateMutability": "nonpayable",
      "type": "constructor"
    },
    {
      "anonymous": false,
      "inputs": [
        {
          "indexed": true,
          "internalType": "address",
          "name": "owner",
          "type": "address"
        },
        {
          "indexed": true,
          "internalType": "address",
          "name": "approved",
          "type": "address"
        },
        {
          "indexed": true,
          "internalType": "uint256",
          "name": "tokenId",
          "type": "uint256"
        }
      ],
      "name": "Approval",
      "type": "event"
    },
    {
      "anonymous": false,
      "inputs": [
        {
          "indexed": true,
          "internalType": "address",
          "name": "owner",
          "type": "address"
        },
        {
          "indexed": true,
          "internalType": "address",
          "name": "operator",
          "type": "address"
        },
        {
          "indexed": false,
          "internalType": "bool",
          "name": "approved",
          "type": "bool"
        }
      ],
      "name": "ApprovalForAll",
      "type": "event"
    },
    {
      "anonymous": false,
      "inputs": [
        {
          "indexed": true,
          "internalType": "address",
          "name": "previousOwner",
          "type": "address"
        },
        {
          "indexed": true,
          "internalType": "address",
          "name": "newOwner",
          "type": "address"
        }
      ],
      "name": "OwnershipTransferred",
      "type": "event"
    },
    {
      "anonymous": false,
      "inputs": [
        {
          "indexed": true,
          "internalType": "address",
          "name": "from",
          "type": "address"
        },
        {
          "indexed": true,
          "internalType": "address",
          "name": "to",
          "type": "address"
        },
        {
          "indexed": true,
          "internalType": "uint256",
          "name": "tokenId",
          "type": "uint256"
        }
      ],
      "name": "Transfer",
      "type": "event"
    },
    {
      "inputs": [
        {
          "internalType": "address",
          "name": "to",
          "type": "address"
        },
        {
          "internalType": "uint256",
          "name": "tokenId",
          "type": "uint256"
        }
      ],
      "name": "approve",
      "outputs": [],
      "stateMutability": "nonpayable",
      "type": "function"
    },
    {
      "inputs": [
        {
          "internalType": "address",
          "name": "owner",
          "type": "address"
        }
      ],
      "name": "balanceOf",
      "outputs": [
        {
          "internalType": "uint256",
          "name": "",
          "type": "uint256"
        }
      ],
      "stateMutability": "view",
      "type": "function"
    },
    {
      "inputs": [
        {
          "internalType": "uint256",
          "name": "tokenId",
          "type": "uint256"
        }
      ],
      "name": "getApproved",
      "outputs": [
        {
          "internalType": "address",
          "name": "",
          "type": "address"
        }
      ],
      "stateMutability": "view",
      "type": "function"
    },
    {
      "inputs": [
        {
          "internalType": "address",
          "name": "owner",
          "type": "address"
        },
        {
          "internalType": "address",
          "name": "operator",
          "type": "address"
        }
      ],
      "name": "isApprovedForAll",
      "outputs": [
        {
          "internalType": "bool",
          "name": "",
          "type": "bool"
        }
      ],
      "stateMutability": "view",
      "type": "function"
    },
    {
      "inputs": [
        {
          "internalType": "address",
          "name": "recipient",
          "type": "address"
        },
        {
          "internalType": "string",
          "name": "uri",
          "type": "string"
        }
      ],
      "name": "mint",
      "outputs": [
        {
          "internalType": "uint256",
          "name": "",
          "type": "uint256"
        }
      ],
      "stateMutability": "nonpayable",
      "type": "function"
    },
    {
      "inputs": [],
      "name": "name",
      "outputs": [
        {
          "internalType": "string",
          "name": "",
          "type": "string"
        }
      ],
      "stateMutability": "view",
      "type": "function"
    },
    {
      "inputs": [],
      "name": "owner",
      "outputs": [
        {
          "internalType": "address",
          "name": "",
          "type": "address"
        }
      ],
      "stateMutability": "view",
      "type": "function"
    },
    {
      "inputs": [
        {
          "internalType": "uint256",
          "name": "tokenId",
          "type": "uint256"
        }
      ],
      "name": "ownerOf",
      "outputs": [
        {
          "internalType": "address",
          "name": "",
          "type": "address"
        }
      ],
      "stateMutability": "view",
      "type": "function"
    },
    {
      "inputs": [],
      "name": "renounceOwnership",
      "outputs": [],
      "stateMutability": "nonpayable",
      "type": "function"
    },
    {
      "inputs": [
        {
          "internalType": "address",
          "name": "from",
          "type": "address"
        },
        {
          "internalType": "address",
          "name": "to",
          "type": "address"
        },
        {
          "internalType": "uint256",
          "name": "tokenId",
          "type": "uint256"
        }
      ],
      "name": "safeTransferFrom",
      "outputs": [],
      "stateMutability": "nonpayable",
      "type": "function"
    },
    {
      "inputs": [
        {
          "internalType": "address",
          "name": "from",
          "type": "address"
        },
        {
          "internalType": "address",
          "name": "to",
          "type": "address"
        },
        {
          "internalType": "uint256",
          "name": "tokenId",
          "type": "uint256"
        },
        {
          "internalType": "bytes",
          "name": "_data",
          "type": "bytes"
        }
      ],
      "name": "safeTransferFrom",
      "outputs": [],
      "stateMutability": "nonpayable",
      "type": "function"
    },
    {
      "inputs": [
        {
          "internalType": "address",
          "name": "operator",
          "type": "address"
        },
        {
          "internalType": "bool",
          "name": "approved",
          "type": "bool"
        }
      ],
      "name": "setApprovalForAll",
      "outputs": [],
      "stateMutability": "nonpayable",
      "type": "function"
    },
    {
      "inputs": [
        {
          "internalType": "bytes4",
          "name": "interfaceId",
          "type": "bytes4"
        }
      ],
      "name": "supportsInterface",
      "outputs": [
        {
          "internalType": "bool",
          "name": "",
          "type": "bool"
        }
      ],
      "stateMutability": "view",
      "type": "function"
    },
    {
      "inputs": [],
      "name": "symbol",
      "outputs": [
        {
          "internalType": "string",
          "name": "",
          "type": "string"
        }
      ],
      "stateMutability": "view",
      "type": "function"
    },
    {
      "inputs": [
        {
          "internalType": "uint256",
          "name": "index",
          "type": "uint256"
        }
      ],
      "name": "tokenByIndex",
      "outputs": [
        {
          "internalType": "uint256",
          "name": "",
          "type": "uint256"
        }
      ],
      "stateMutability": "view",
      "type": "function"
    },
    {
      "inputs": [
        {
          "internalType": "address",
          "name": "owner",
          "type": "address"
        },
        {
          "internalType": "uint256",
          "name": "index",
          "type": "uint256"
        }
      ],
      "name": "tokenOfOwnerByIndex",
      "outputs": [
        {
          "internalType": "uint256",
          "name": "",
          "type": "uint256"
        }
      ],
      "stateMutability": "view",
      "type": "function"
    },
    {
      "inputs": [
        {
          "internalType": "uint256",
          "name": "tokenId",
          "type": "uint256"
        }
      ],
      "name": "tokenURI",
      "outputs": [
        {
          "internalType": "string",
          "name": "",
          "type": "string"
        }
      ],
      "stateMutability": "view",
      "type": "function"
    },
    {
      "inputs": [],
      "name": "totalSupply",
      "outputs": [
        {
          "internalType": "uint256",
          "name": "",
          "type": "uint256"
        }
      ],
      "stateMutability": "view",
      "type": "function"
    },
    {
      "inputs": [
        {
          "internalType": "address",
          "name": "from",
          "type": "address"
        },
        {
          "internalType": "address",
          "name": "to",
          "type": "address"
        },
        {
          "internalType": "uint256",
          "name": "tokenId",
          "type": "uint256"
        }
      ],
      "name": "transferFrom",
      "outputs": [],
      "stateMutability": "nonpayable",
      "type": "function"
    },
    {
      "inputs": [
        {
          "internalType": "address",
          "name": "newOwner",
          "type": "address"
        }
      ],
      "name": "transferOwnership",
      "outputs": [],
      "stateMutability": "nonpayable",
      "type": "function"
    }
  ],
  "bytecode": "0x60806040523480156200001157600080fd5b506040805180820182526005815264135e53919560da1b6020808301918252835180850190945260048452631353919560e21b9084015281519192916200005b91600091620000ea565b50805162000071906001906020840190620000ea565b5050506200008e620000886200009460201b60201c565b62000098565b620001cd565b3390565b600680546001600160a01b038381166001600160a01b0319831681179093556040519116919082907f8be0079c531659141344cd1fd0a4f28419497f9722a3daafe3b4186f6b6457e090600090a35050565b828054620000f89062000190565b90600052602060002090601f0160209004810192826200011c576000855562000167565b82601f106200013757805160ff191683800117855562000167565b8280016001018555821562000167579182015b82811115620001675782518255916020019190600101906200014a565b506200017592915062000179565b5090565b5b808211156200017557600081556001016200017a565b600281046001821680620001a557607f821691505b60208210811415620001c757634e487b7160e01b600052602260045260246000fd5b50919050565b611aa380620001dd6000396000f3fe608060405234801561001057600080fd5b506004361061012c5760003560e01c806370a08231116100ad578063b88d4fde11610071578063b88d4fde14610256578063c87b56dd14610269578063d0def5211461027c578063e985e9c51461028f578063f2fde38b146102a25761012c565b806370a0823114610218578063715018a61461022b5780638da5cb5b1461023357806395d89b411461023b578063a22cb465146102435761012c565b806323b872dd116100f457806323b872dd146101b95780632f745c59146101cc57806342842e0e146101df5780634f6ccce7146101f25780636352211e146102055761012c565b806301ffc9a71461013157806306fdde031461015a578063081812fc1461016f578063095ea7b31461018f57806318160ddd146101a4575b600080fd5b61014461013f3660046113b1565b6102b5565b604051610151919061149d565b60405180910390f35b6101626102c8565b60405161015191906114a8565b61018261017d3660046113e9565b61035a565b604051610151919061144c565b6101a261019d366004611388565b6103a6565b005b6101ac61043e565b60405161015191906119b8565b6101a26101c736600461123b565b610444565b6101ac6101da366004611388565b61047c565b6101a26101ed36600461123b565b6104ce565b6101ac6102003660046113e9565b6104e9565b6101826102133660046113e9565b610544565b6101ac6102263660046111ef565b610579565b6101a26105bd565b610182610608565b610162610617565b6101a26102513660046112ef565b610626565b6101a2610264366004611276565b6106f4565b6101626102773660046113e9565b610733565b6101ac61028a366004611329565b6107f9565b61014461029d366004611209565b61082e565b6101a26102b03660046111ef565b61085c565b60006102c0826108cd565b90505b919050565b6060600080546102d7906119f0565b80601f0160208091040260200160405190810160405280929190818152602001828054610303906119f0565b80156103505780601f1061032557610100808354040283529160200191610350565b820191906000526020600020905b81548152906001019060200180831161033357829003601f168201915b5050505050905090565b6000610365826108f2565b61038a5760405162461bcd60e51b8152600401610381906117c1565b60405180910390fd5b506000908152600460205260409020546001600160a01b031690565b60006103b182610544565b9050806001600160a01b0316836001600160a01b031614156103e55760405162461bcd60e51b8152600401610381906118da565b806001600160a01b03166103f761090f565b6001600160a01b0316148061041357506104138161029d61090f565b61042f5760405162461bcd60e51b81526004016103819061169c565b6104398383610913565b505050565b60095490565b61045561044f61090f565b82610981565b6104715760405162461bcd60e51b81526004016103819061191b565b610439838383610a06565b600061048783610579565b82106104a55760405162461bcd60e51b8152600401610381906114bb565b506001600160a01b03919091166000908152600760209081526040808320938352929052205490565b610439838383604051806020016040528060008152506106f4565b60006104f361043e565b82106105115760405162461bcd60e51b81526004016103819061196c565b6009828154811061053257634e487b7160e01b600052603260045260246000fd5b90600052602060002001549050919050565b6000818152600260205260408120546001600160a01b0316806102c05760405162461bcd60e51b815260040161038190611743565b60006001600160a01b0382166105a15760405162461bcd60e51b8152600401610381906116f9565b506001600160a01b031660009081526003602052604090205490565b6105c561090f565b6001600160a01b03166105d6610608565b6001600160a01b0316146105fc5760405162461bcd60e51b81526004016103819061180d565b6106066000610b33565b565b6006546001600160a01b031690565b6060600180546102d7906119f0565b61062e61090f565b6001600160a01b0316826001600160a01b0316141561065f5760405162461bcd60e51b815260040161038190611619565b806005600061066c61090f565b6001600160a01b03908116825260208083019390935260409182016000908120918716808252919093529120805460ff1916921515929092179091556106b061090f565b6001600160a01b03167f17307eab39ab6107e8899845ad3d59bd9653f200f220920489ca2b5937696c31836040516106e8919061149d565b60405180910390a35050565b6107056106ff61090f565b83610981565b6107215760405162461bcd60e51b81526004016103819061191b565b61072d84848484610b85565b50505050565b606061073e826108f2565b61075a5760405162461bcd60e51b81526004016103819061188b565b6000828152600c602052604081208054610773906119f0565b80601f016020809104026020016040519081016040528092919081815260200182805461079f906119f0565b80156107ec5780601f106107c1576101008083540402835291602001916107ec565b820191906000526020600020905b8154815290600101906020018083116107cf57829003601f168201915b5093979650505050505050565b6000610805600b610bb8565b6000610811600b610bc1565b905061081d8482610bc5565b6108278184610ca4565b9392505050565b6001600160a01b03918216600090815260056020908152604080832093909416825291909152205460ff1690565b61086461090f565b6001600160a01b0316610875610608565b6001600160a01b03161461089b5760405162461bcd60e51b81526004016103819061180d565b6001600160a01b0381166108c15760405162461bcd60e51b815260040161038190611558565b6108ca81610b33565b50565b60006001600160e01b0319821663780e9d6360e01b14806102c057506102c082610cc3565b6000908152600260205260409020546001600160a01b0316151590565b3390565b600081815260046020526040902080546001600160a01b0319166001600160a01b038416908117909155819061094882610544565b6001600160a01b03167f8c5be1e5ebec7d5bd14f71427d1e84f3dd0314c0f7b2291e5b200ac8c7c3b92560405160405180910390a45050565b600061098c826108f2565b6109a85760405162461bcd60e51b815260040161038190611650565b60006109b383610544565b9050806001600160a01b0316846001600160a01b031614806109ee5750836001600160a01b03166109e38461035a565b6001600160a01b0316145b806109fe57506109fe818561082e565b949350505050565b826001600160a01b0316610a1982610544565b6001600160a01b031614610a3f5760405162461bcd60e51b815260040161038190611842565b6001600160a01b038216610a655760405162461bcd60e51b8152600401610381906115d5565b610a70838383610d03565b610a7b600082610913565b6001600160a01b0383166000908152600360205260408120805460019290610aa49084906119d9565b90915550506001600160a01b0382166000908152600360205260408120805460019290610ad29084906119c1565b909155505060008181526002602052604080822080546001600160a01b0319166001600160a01b0386811691821790925591518493918716917fddf252ad1be2c89b69c2b068fc378daa952ba7f163c4a11628f55a4df523b3ef91a4505050565b600680546001600160a01b038381166001600160a01b0319831681179093556040519116919082907f8be0079c531659141344cd1fd0a4f28419497f9722a3daafe3b4186f6b6457e090600090a35050565b610b90848484610a06565b610b9c84848484610d0e565b61072d5760405162461bcd60e51b815260040161038190611506565b80546001019055565b5490565b6001600160a01b038216610beb5760405162461bcd60e51b81526004016103819061178c565b610bf4816108f2565b15610c115760405162461bcd60e51b81526004016103819061159e565b610c1d60008383610d03565b6001600160a01b0382166000908152600360205260408120805460019290610c469084906119c1565b909155505060008181526002602052604080822080546001600160a01b0319166001600160a01b03861690811790915590518392907fddf252ad1be2c89b69c2b068fc378daa952ba7f163c4a11628f55a4df523b3ef908290a45050565b6000828152600c602090815260409091208251610439928401906110cf565b60006001600160e01b031982166380ac58cd60e01b1480610cf457506001600160e01b03198216635b5e139f60e01b145b806102c057506102c082610e29565b610439838383610e42565b6000610d22846001600160a01b0316610ecb565b15610e1e57836001600160a01b031663150b7a02610d3e61090f565b8786866040518563ffffffff1660e01b8152600401610d609493929190611460565b602060405180830381600087803b158015610d7a57600080fd5b505af1925050508015610daa575060408051601f3d908101601f19168201909252610da7918101906113cd565b60015b610e04573d808015610dd8576040519150601f19603f3d011682016040523d82523d6000602084013e610ddd565b606091505b508051610dfc5760405162461bcd60e51b815260040161038190611506565b805181602001fd5b6001600160e01b031916630a85bd0160e11b1490506109fe565b506001949350505050565b6001600160e01b031981166301ffc9a760e01b14919050565b610e4d838383610439565b6001600160a01b038316610e6957610e6481610ed1565b610e8c565b816001600160a01b0316836001600160a01b031614610e8c57610e8c8382610f15565b6001600160a01b038216610ea857610ea381610fb2565b610439565b826001600160a01b0316826001600160a01b03161461043957610439828261108b565b3b151590565b600980546000838152600a60205260408120829055600182018355919091527f6e1540171b6c0c960b71a7020d9f60077f6af931a8bbf590da0223dacf75c7af0155565b60006001610f2284610579565b610f2c91906119d9565b600083815260086020526040902054909150808214610f7f576001600160a01b03841660009081526007602090815260408083208584528252808320548484528184208190558352600890915290208190555b5060009182526008602090815260408084208490556001600160a01b039094168352600781528383209183525290812055565b600954600090610fc4906001906119d9565b6000838152600a602052604081205460098054939450909284908110610ffa57634e487b7160e01b600052603260045260246000fd5b90600052602060002001549050806009838154811061102957634e487b7160e01b600052603260045260246000fd5b6000918252602080832090910192909255828152600a9091526040808220849055858252812055600980548061106f57634e487b7160e01b600052603160045260246000fd5b6001900381819060005260206000200160009055905550505050565b600061109683610579565b6001600160a01b039093166000908152600760209081526040808320868452825280832085905593825260089052919091209190915550565b8280546110db906119f0565b90600052602060002090601f0160209004810192826110fd5760008555611143565b82601f1061111657805160ff1916838001178555611143565b82800160010185558215611143579182015b82811115611143578251825591602001919060010190611128565b5061114f929150611153565b5090565b5b8082111561114f5760008155600101611154565b600067ffffffffffffffff8084111561118357611183611a41565b604051601f8501601f1916810160200182811182821017156111a7576111a7611a41565b6040528481529150818385018610156111bf57600080fd5b8484602083013760006020868301015250509392505050565b80356001600160a01b03811681146102c357600080fd5b600060208284031215611200578081fd5b610827826111d8565b6000806040838503121561121b578081fd5b611224836111d8565b9150611232602084016111d8565b90509250929050565b60008060006060848603121561124f578081fd5b611258846111d8565b9250611266602085016111d8565b9150604084013590509250925092565b6000806000806080858703121561128b578081fd5b611294856111d8565b93506112a2602086016111d8565b925060408501359150606085013567ffffffffffffffff8111156112c4578182fd5b8501601f810187136112d4578182fd5b6112e387823560208401611168565b91505092959194509250565b60008060408385031215611301578182fd5b61130a836111d8565b91506020830135801515811461131e578182fd5b809150509250929050565b6000806040838503121561133b578182fd5b611344836111d8565b9150602083013567ffffffffffffffff81111561135f578182fd5b8301601f8101851361136f578182fd5b61137e85823560208401611168565b9150509250929050565b6000806040838503121561139a578182fd5b6113a3836111d8565b946020939093013593505050565b6000602082840312156113c2578081fd5b813561082781611a57565b6000602082840312156113de578081fd5b815161082781611a57565b6000602082840312156113fa578081fd5b5035919050565b60008151808452815b818110156114265760208185018101518683018201520161140a565b818111156114375782602083870101525b50601f01601f19169290920160200192915050565b6001600160a01b0391909116815260200190565b6001600160a01b038581168252841660208201526040810183905260806060820181905260009061149390830184611401565b9695505050505050565b901515815260200190565b6000602082526108276020830184611401565b6020808252602b908201527f455243373231456e756d657261626c653a206f776e657220696e646578206f7560408201526a74206f6620626f756e647360a81b606082015260800190565b60208082526032908201527f4552433732313a207472616e7366657220746f206e6f6e20455243373231526560408201527131b2b4bb32b91034b6b83632b6b2b73a32b960711b606082015260800190565b60208082526026908201527f4f776e61626c653a206e6577206f776e657220697320746865207a65726f206160408201526564647265737360d01b606082015260800190565b6020808252601c908201527f4552433732313a20746f6b656e20616c7265616479206d696e74656400000000604082015260600190565b60208082526024908201527f4552433732313a207472616e7366657220746f20746865207a65726f206164646040820152637265737360e01b606082015260800190565b60208082526019908201527f4552433732313a20617070726f766520746f2063616c6c657200000000000000604082015260600190565b6020808252602c908201527f4552433732313a206f70657261746f7220717565727920666f72206e6f6e657860408201526b34b9ba32b73a103a37b5b2b760a11b606082015260800190565b60208082526038908201527f4552433732313a20617070726f76652063616c6c6572206973206e6f74206f7760408201527f6e6572206e6f7220617070726f76656420666f7220616c6c0000000000000000606082015260800190565b6020808252602a908201527f4552433732313a2062616c616e636520717565727920666f7220746865207a65604082015269726f206164647265737360b01b606082015260800190565b60208082526029908201527f4552433732313a206f776e657220717565727920666f72206e6f6e657869737460408201526832b73a103a37b5b2b760b91b606082015260800190565b6020808252818101527f4552433732313a206d696e7420746f20746865207a65726f2061646472657373604082015260600190565b6020808252602c908201527f4552433732313a20617070726f76656420717565727920666f72206e6f6e657860408201526b34b9ba32b73a103a37b5b2b760a11b606082015260800190565b6020808252818101527f4f776e61626c653a2063616c6c6572206973206e6f7420746865206f776e6572604082015260600190565b60208082526029908201527f4552433732313a207472616e73666572206f6620746f6b656e2074686174206960408201526839903737ba1037bbb760b91b606082015260800190565b6020808252602f908201527f4552433732314d657461646174613a2055524920717565727920666f72206e6f60408201526e3732bc34b9ba32b73a103a37b5b2b760891b606082015260800190565b60208082526021908201527f4552433732313a20617070726f76616c20746f2063757272656e74206f776e656040820152603960f91b606082015260800190565b60208082526031908201527f4552433732313a207472616e736665722063616c6c6572206973206e6f74206f6040820152701ddb995c881b9bdc88185c1c1c9bdd9959607a1b606082015260800190565b6020808252602c908201527f455243373231456e756d657261626c653a20676c6f62616c20696e646578206f60408201526b7574206f6620626f756e647360a01b606082015260800190565b90815260200190565b600082198211156119d4576119d4611a2b565b500190565b6000828210156119eb576119eb611a2b565b500390565b600281046001821680611a0457607f821691505b60208210811415611a2557634e487b7160e01b600052602260045260246000fd5b50919050565b634e487b7160e01b600052601160045260246000fd5b634e487b7160e01b600052604160045260246000fd5b6001600160e01b0319811681146108ca57600080fdfea26469706673582212208258619b6089d34bee42b4efc2584785f7e58df6cc4a74b5439dbfc5a9e1c21764736f6c63430008000033",
  "linkReferences": {},
  "deployedLinkReferences": {}
}